:020000040800F2
:100000000000022075220008C5220008C522000851
:10001000C5220008C5220008C52200080000000013
:10002000000000000000000000000000C5220008E1
:10003000C522000800000000C5220008C5220008F3
:10004000C5220008C5220008C5220008C5220008F4
:10005000C5220008C5220008A9030008C52200081F
:10006000C5220008C5220008C5220008C5220008D4
:10007000C5220008C5220008C5220008C5220008C4
:10008000C5220008C5220008C5220008C5220008B4
:10009000C5220008C5220008C5220008C5220008A4
:1000A000C5220008C5220008C5220008C522000894
:1000B00035040008C5220008C5220008C522000832
:1000C000C5220008C5220008C5220008C522000874
:1000D000C5220008C5220008C5220008C522000864
:1000E000C5220008C5220008C5220008C522000854
:1000F000C5220008C5220008C5220008C522000844
:10010000C5220008C5220008C5220008C522000833
:10011000C5220008C5220008C5220008C522000823
:10012000C5220008C5220008C5220008C522000813
:10013000C5220008C5220008C5220008C522000803
:10014000C5220008C5220008C5220008C5220008F3
:10015000C5220008C5220008C5220008C5220008E3
:10016000C5220008C5220008C5220008C5220008D3
:10017000C5220008C5220008C5220008C5220008C3
:08018000C5220008C522000899
:1001880010B540F22C54C2F20004237863B940F24F
:100198000000C0F2000028B142F2F420C0F60000CE
:1001A800AFF300800121217010BD00BF08B540F2F7
:1001B8000003C0F200034BB142F2F42040F2305188
:1001C800C0F60000C2F20001AFF3008040F22850F0
:1001D800C2F20000016829B140F20003C0F2000336
:1001E80003B1984708BD00BF80B500AF00F090F894
:1001F80000F006F800F028F800F044F8FEE700BF29
:1002080080B582B000AF4FF001004FF0010100F05F
:100218003BFE4FF001033B714FF00003BB714FF001
:1002280002037B714FF00003FB714FF002033B6048
:100238004FF00000C4F202003B46194601F026F8D0
:1002480007F10807BD4680BD80B582B000AF4FF00A
:1002580002004FF0010100F017FE4FF000033B7160
:100268004FF00003FB714FF001033B604FF48060D7
:10027800C4F202003B46194601F008F807F10807E6
:10028800BD4680BD80B582B000AF4FF480404FF0CE
:10029800010100F04DFE4FF001004FF0000100F0A9
:1002A8009DFF40F24C53C2F200034FF001021A6066
:1002B80040F24C53C2F200034FF000021A7140F2B0
:1002C8004C53C2F200034FF008025A7140F24C53EB
:1002D800C2F200034FF001029A7140F24C50C2F290
:1002E800000000F0A3FE4FF006033B714FF001033E
:1002F8007B714FF00103BB714FF00103FB7107F1F4
:100308000403184601F092FA07F10807BD4680BDBC
:1003180080B584B000AF4FF001004FF0010100F04C
:10032800DDFD4FF0804001F053F841F65733BB60D4
:1003380040F6B733BB804FF00003BB814FF000039A
:10034800FB804FF0804007F10403194601F05CF987
:100358004FF080404FF001014FF0010201F0EEF93B
:100368004FF080404FF0010101F00CFA4FF080404F
:100378004FF0010101F0C2F94FF01C033B704FF040
:1003880000037B704FF00003BB704FF00103FB705C
:100398003B46184601F04AFA07F11007BD4680BDF2
:1003A80080B500AF4FF0010000F0DCFE0346012BE2
:1003B8003BD140F25453C2F200031B68042B18DCF3
:1003C8004FF00003C4F202034FF00002C4F202022D
:1003D800526922F002025A614FF00003C4F202038C
:1003E8004FF00002C4F20202526942F002025A615E
:1003F8000BE04FF47053C4F201034FF47052C4F28F
:100408000102126822F001021A6040F25453C2F24B
:1004180000031B6803F1010240F25453C2F20003C7
:100428001A604FF0010000F0C9FE80BD80B500AF32
:100438004FF080404FF0010101F0B6F90346002B60
:1004480018D04FF080404FF0010101F0DDF940F283
:100458005453C2F200034FF000021A604FF4705375
:10046800C4F201034FF47052C4F20102126842F060
:1004780001021A6080BD00BF80B483B000AF43F6AC
:100488003003C4F202037B607B681B6843F00202FE
:100498007B681A6007F10C07BD4680BC704700BF37
:1004A80080B483B000AF43F64403C4F202037B6018
:1004B8007B681B6843F010027B681A6007F10C0721
:1004C800BD4680BC704700BF80B400AF40F2040353
:1004D800C2F200031A6840F20403C2F200031B6868
:1004E8001B6823F44053136040F20403C2F2000374
:1004F8001A6840F20403C2F200031B681B6843F445
:100508000053136040F20403C2F200031A6840F279
:100518000403C2F200031B685B6823F040035360C6
:1005280040F20403C2F200031A6840F20403C2F264
:1005380000031B689B6823F44053936040F2040354
:10054800C2F200031A6840F20403C2F200031B68F7
:100558009B6843F40053936040F20403C2F2000323
:100568001A6840F20403C2F200031B681B6A23F0F6
:10057800E063136240F20403C2F200031A6840F217
:100588000403C2F200031B681B6A43F0E0631362B2
:10059800BD4680BC704700BF80B487B000AF7860AC
:1005A80040F20803C2F200031A6840F20803C2F2DC
:1005B80000031B689B899BB223F480539BB29381F1
:1005C80040F20803C2F200031A6840F20803C2F2BC
:1005D80000031B689B899BB223F480639BB29381C1
:1005E80040F20803C2F200031A6840F20803C2F29C
:1005F80000031B689B899BB243F008039BB293815D
:1006080040F20803C2F200031A6840F20803C2F27B
:1006180000031B689B899BB243F004039BB2938140
:1006280040F20803C2F200031A6840F20803C2F25B
:1006380000031B681B8A9BB223F440539BB21382AE
:1006480040F20803C2F200031A6840F20803C2F23B
:1006580000031B689B8A9BB223F440739BB293826E
:1006680040F20803C2F200031B689B899BB29BB24D
:100678001BB2002B3ADA7B684FEA43024FF4EA4395
:10068800C7F62B53B3FBF2F37B617A6948F21F5329
:10069800C5F2EB13A3FB02134FEA53133B613B690B
:1006A8004FF0640202FB03F37A69D31A4FEAC303DB
:1006B80003F1320248F21F53C5F2EB13A3FB0213F6
:1006C8004FEA5313FB6040F20803C2F200031B68B1
:1006D8003A6992B24FEA021291B2FA6892B202F003
:1006E800070292B20A4392B21A8139E07B684FEA54
:1006F80083024FF4EA43C7F62B53B3FBF2F37B6153
:100708007A6948F21F53C5F2EB13A3FB02134FEAB1
:1007180053133B613B694FF0640202FB03F37A69B0
:10072800D31A4FEA031303F1320248F21F53C5F2FA
:10073800EB13A3FB02134FEA5313FB6040F20803C9
:10074800C2F200031B683A6992B24FEA021291B2F0
:10075800FA6892B202F00F0292B20A4392B21A8178
:1007680040F20803C2F200031A6840F20803C2F21A
:1007780000031B689B899BB243F400539BB293818F
:1007880007F11C07BD4680BC704700BF80B500AFAD
:10079800FFF772FEFFF784FEFFF796FE4FF4E13095
:1007A800FFF7FAFE80BD00BF80B584B000AF786067
:1007B8003960FFF7EBFF4FF00003FB601BE000BF61
:1007C80040F20803C2F200031B681B889BB203F0C7
:1007D8004003002BF4D040F20803C2F200031B6868
:1007E8007A6812789A807B6803F101037B60FB6862
:1007F80003F10103FB60FA683B689A42DFDB3B6860
:10080800184607F11007BD4680BD00BF80B582B00D
:1008180000AF78604FF0010042F2C821C0F6000135
:100828004FF0040200F042F9FEE700BF80B483B045
:1008380000AF78604FF0FF33184607F10C07BD464C
:1008480080BC704780B485B000AFF860B9607A604A
:1008580040F29453C2F200034FF00C021A604FF0BA
:10086800FF33184607F11407BD4680BC704700BF28
:1008780080B400AF40F29453C2F200034FF00B0271
:100888001A604FF0FF331846BD4680BC704700BF62
:1008980080B483B000AF786039603B684FF4005291
:1008A8005A604FF00003184607F10C07BD4680BC9C
:1008B800704700BF80B400AF4FF001031846BD4633
:1008C80080BC704780B483B000AF78607B6803F168
:1008D8000003022B02D84FF0010308E040F29453C2
:1008E800C2F200034FF009021A604FF000031846E5
:1008F80007F10C07BD4680BC704700BF80B483B0C9
:1009080000AF7860396040F29453C2F200034FF0B0
:1009180016021A604FF0FF33184607F10C07BD4660
:1009280080BC704780B483B000AF7860396040F213
:100938009453C2F200034FF01F021A604FF0FF33C6
:10094800184607F10C07BD4680BC704780B485B0D7
:1009580000AFF860B9607A604FF00003184607F1FD
:100968001407BD4680BC704790B585B000AF78606D
:1009780040F25C53C2F200031B68002B08D140F21E
:100988005C53C2F2000340F29852C2F200021A60AD
:1009980040F25C53C2F200031B68FB60EFF308846B
:1009A8002346BB6040F25C53C2F200031A687B68BE
:1009B800D218BB689A4213D94FF0020042F2D021F4
:1009C800C0F600014FF0190200F070F840F294539D
:1009D800C2F200034FF00C021A604FF0FF330CE034
:1009E80040F25C53C2F200031A687B68D21840F2E6
:1009F8005C53C2F200031A60FB68184607F114073B
:100A0800BD4690BD80B485B000AFF860B9607A602B
:100A18004FF0FF33184607F11407BD4680BC7047F6
:100A280080B483B000AF786039603B684FF40052FF
:100A38005A604FF00003184607F10C07BD4680BC0A
:100A4800704700BF80B483B000AF78604FF0FF33C9
:100A5800184607F10C07BD4680BC704780B483B0C8
:100A680000AF786040F29453C2F200034FF00202E4
:100A78001A604FF0FF33184607F10C07BD4680BCDB
:100A8800704700BF80B483B000AF786040F29453E1
:100A9800C2F200034FF00A021A604FF0FF33184603
:100AA80007F10C07BD4680BC704700BF80B584B015
:100AB80000AFF860B9607A60FB68012B02D0022BA6
:100AC80006D00BE0B8687968FFF76EFE78600FE033
:100AD800B8687968FFF768FE786009E040F29453D7
:100AE800C2F200034FF009021A604FF0FF3300E032
:100AF8007B68184607F11007BD4680BD80B500AF7A
:100B08004FF46053C4F202034FF46052C4F202027D
:100B1800126842F001021A604FF46053C4F20203F3
:100B28004FF000029A604FF46053C4F202034FF48E
:100B38006052C4F20202126822F0847222F48032F7
:100B48001A604FF46053C4F2020343F21002C2F277
:100B580000425A604FF46053C4F202034FF46052EB
:100B6800C4F20202126822F480221A604FF4605321
:100B7800C4F202034FF00002DA6000F0C1F84FF44B
:100B88006D43CEF200034FF000629A6080BD00BF53
:100B980080B487B000AF4FF000033B614FF0000313
:100BA8007B614FF00203FB604FF00003BB604FF026
:100BB80002037B604FF46053C4F202039B6803F0A6
:100BC8000C033B613B69042B0DD0082B15D0002B7F
:100BD80069D140F21003C2F200034FF41052C0F280
:100BE800F4021A6069E040F21003C2F200034FF405
:100BF8009052C0F27A021A605FE04FF46053C4F278
:100C080002035B6803F480034FEA9353BB604FF41D
:100C18006053C4F202035B6803F03F037B60BB6868
:100C2800002B14D04FF49053C0F27A037A68B3FBC8
:100C3800F2F24FF46053C4F20203596847F6C073E6
:100C48000B404FEA931303FB02F37B6113E04FF46D
:100C58001053C0F2F4037A68B3FBF2F24FF4605316
:100C6800C4F20203596847F6C0730B404FEA931366
:100C780003FB02F37B614FF46053C4F202035B6829
:100C880003F440334FEA134303F101034FEA4303EC
:100C9800FB607A69FB68B2FBF3F240F21003C2F220
:100CA80000031A6009E040F21003C2F200034FF497
:100CB8001052C0F2F4021A6000BF4FF46053C4F23D
:100CC80002039B6803F0F0034FEA131240F2140387
:100CD800C2F200039B5CDBB23B6140F21003C2F23C
:100CE80000031A683B6922FA03F240F21003C2F2C9
:100CF80000031A6007F11C07BD4680BC704700BF9F
:100D080080B483B000AF4FF000037B604FF0000366
:100D18003B604FF46053C4F202034FF46052C4F2D4
:100D28000202126842F480321A604FF46053C4F22F
:100D380002031B6803F400333B607B6803F1010383
:100D48007B603B68002B03D17B68B3F5A06FECD1C7
:100D58004FF46053C4F202031B6803F40033002B02
:100D680003D04FF001033B6002E04FF000033B600B
:100D78003B68012B40F082804FF46053C4F20203B9
:100D88004FF46052C4F20202126C42F080521A64AC
:100D98004FF4E043C4F200034FF4E042C4F200020F
:100DA800126842F480421A604FF46053C4F202039E
:100DB8004FF46052C4F2020292689A604FF4605392
:100DC800C4F202034FF46052C4F20202926842F481
:100DD80000429A604FF46053C4F202034FF4605229
:100DE800C4F20202926842F4A0529A604FF460532F
:100DF800C4F2020345F20842C0F240725A604FF44E
:100E08006053C4F202034FF46052C4F20202126843
:100E180042F080721A6000BF4FF46053C4F20203BC
:100E28001B6803F00073002BF6D04FF47053C4F224
:100E3800020340F205621A604FF46053C4F20203E1
:100E48004FF46052C4F20202926822F003029A60E0
:100E58004FF46053C4F202034FF46052C4F202022A
:100E6800926842F002029A6000BF4FF46053C4F2E5
:100E780002039B6803F00C03082BF6D107F10C075B
:100E8800BD4680BC704700BF80B483B000AF7860B7
:100E98000B46FB70FB78002B0CD04FF46053C4F268
:100EA80002034FF46052C4F20202116B7A680A43DB
:100EB8001A630DE04FF46053C4F202034FF460521A
:100EC800C4F20202116B7A686FEA02020A401A63DE
:100ED80007F10C07BD4680BC704700BF80B483B0E3
:100EE80000AF78600B46FB70FB78002B0CD04FF4FA
:100EF8006053C4F202034FF46052C4F20202116C50
:100F08007A680A431A640DE04FF46053C4F202038E
:100F18004FF46052C4F20202116C7A686FEA02025E
:100F28000A401A6407F10C07BD4680BC704700BF31
:100F380080B483B000AF78600B46FB70FB78002B61
:100F48000CD04FF46053C4F202034FF46052C4F261
:100F58000202516C7A680A435A640DE04FF46053F8
:100F6800C4F202034FF46052C4F20202516C7A6870
:100F78006FEA02020A405A6407F10C07BD4680BCBA
:100F8800704700BF80B483B000AF78600B46FB7039
:100F9800FB78002B0CD04FF46053C4F202034FF4DB
:100FA8006052C4F20202116A7A680A431A620DE0BA
:100FB8004FF46053C4F202034FF46052C4F20202C9
:100FC800116A7A686FEA02020A401A6207F10C078E
:100FD800BD4680BC704700BF80B483B000AF786066
:100FE8000B46FB70FB78002B0CD04FF46053C4F217
:100FF80002034FF46052C4F20202516A7A680A434B
:101008005A620DE04FF46053C4F202034FF4605289
:10101800C4F20202516A7A686FEA02020A405A620E
:1010280007F10C07BD4680BC704700BF80B485B08F
:1010380000AF78604FF00003FB604FF47053C4F2C8
:101048000103FB607B689B79002B78D04FF47053C9
:10105800C4F201034FF47052C4F2010211687A68B5
:1010680012686FEA02020A401A604FF47053C4F221
:1010780001034FF47052C4F2010251687A68126891
:101088006FEA02020A405A607B681B79FA68D31833
:10109800FB60FB68FA6811687A6812680A431A608C
:1010A8004FF47053C4F201034FF47052C4F20102BA
:1010B80091687A6812686FEA02020A409A604FF4EF
:1010C8007053C4F201034FF47052C4F20102D168A4
:1010D8007A6812686FEA02020A40DA607B685B7914
:1010E800102B1AD14FF47053C4F201034FF470520D
:1010F800C4F2010291687A6812680A439A604FF450
:101108007053C4F201034FF47052C4F20102D16863
:101118007A6812680A43DA601FE04FF47053C4F229
:101128000103FB607B685B79FA68D318FB60FB6896
:10113800FA6811687A6812680A431A600DE07B68D9
:101148001B79FA68D318FB60FB68FA6811687A683B
:1011580012686FEA02020A401A6007F11407BD46D6
:1011680080BC704780B485B000AF78604FF0000352
:10117800FB734FF00003BB604FF47053C4F20103DC
:101188001A687B681340BB604FF47053C4F20103C4
:101198005A697B681340002B06D0BB68002B03D02C
:1011A8004FF00103FB7302E04FF00003FB73FB7B7E
:1011B800184607F11407BD4680BC704780B483B059
:1011C80000AF78604FF47053C4F201037A685A6133
:1011D80007F10C07BD4680BC704700BF90B484B0CF
:1011E80000AF02460B46FA71BB714FF00003FB607B
:1011F800BB7903F003034FEA83034FF00F0202FAAF
:1012080003F3FB604FF46053C4F20103BA794FEA69
:101218009202D2B210464FF46052C4F20102B97978
:101228004FEA9101C9B201F1020152F82110FA689E
:101238006FEA0202114000F1020243F822104FF453
:101248006053C4F20103BA794FEA9202D2B210464F
:101258004FF46052C4F20102B9794FEA9101C9B260
:1012680001F1020152F82110FC79BA7902F0030267
:101278004FEA820204FA02F2114300F1020243F833
:10128800221007F11007BD4690BC704780B487B0A4
:1012980000AF786039604FF000037B614FF00003C6
:1012A8003B614FF00003FB604FF000037B6186E079
:1012B8007B694FF0010202FA03F33B613B681A684D
:1012C8003B691340FB60FA683B699A4273D17B68BB
:1012D8001A687B694FEA43034FF0030101FA03F3ED
:1012E8006FEA03031A407B681A607B681A683B68D8
:1012F8001B7919467B694FEA430301FA03F31A4342
:101308007B681A603B681B79012B03D03B681B790B
:10131800022B34D17B689A687B694FEA43034FF00C
:10132800030101FA03F36FEA03031A407B689A602A
:101338007B689A683B685B7919467B694FEA430387
:1013480001FA03F31A437B689A607B685A687B69E1
:101358009BB24FF0010101FA03F36FEA03031A404D
:101368007B685A607B685A683B689B7919467B6939
:101378009BB201FA03F39BB21A437B685A607B68FD
:10138800DA687B699BB24FEA43034FF0030101FA25
:1013980003F36FEA03031A407B68DA607B68DA6854
:1013A8003B68DB7919467B694FEA430301FA03F38B
:1013B8001A437B68DA607B6903F101037B617B690F
:1013C8000F2B7FF675AF07F11C07BD4680BC704731
:1013D80080B582B000AF78607A684FF00003C4F23D
:1013E80001039A420CD14FF001004FF00101FFF7C1
:1013F800F3FD4FF001004FF00001FFF7EDFDFFE0B6
:101408007B68B3F1804F0CD14FF001004FF0010120
:10141800FFF7B8FD4FF001004FF00001FFF7B2FDF4
:10142800EEE07A684FF48063C4F200039A420CD16C
:101438004FF002004FF00101FFF7A4FD4FF002004A
:101448004FF00001FFF79EFDDAE07A684FF4006381
:10145800C4F200039A420CD14FF004004FF001018E
:10146800FFF790FD4FF004004FF00001FFF78AFDF1
:10147800C6E07A684FF44063C4F200039A420CD184
:101488004FF008004FF00101FFF77CFD4FF0080016
:101498004FF00001FFF776FDB2E07A684FF4805311
:1014A800C4F200039A420CD14FF010004FF0010132
:1014B800FFF768FD4FF010004FF00001FFF762FDE5
:1014C8009EE07A684FF4A053C4F200039A420CD10C
:1014D8004FF020004FF00101FFF754FD4FF02000BE
:1014E8004FF00001FFF74EFD8AE07A684FF4806301
:1014F800C4F201039A420CD14FF002004FF00101EF
:10150800FFF76AFD4FF002004FF00001FFF764FD9E
:1015180076E07A684FF48043C4F201039A420CD112
:101528004FF480304FF00101FFF756FD4FF4803043
:101538004FF00001FFF750FD62E07A684FF48843EE
:10154800C4F201039A420CD14FF400304FF001016C
:10155800FFF742FD4FF400304FF00001FFF73CFD6C
:101568004EE07A684FF49043C4F201039A420CD1DA
:101578004FF480204FF00101FFF72EFD4FF480203B
:101588004FF00001FFF728FD3AE07A684FF4C053A6
:10159800C4F200039A420CD14FF040004FF0010111
:1015A800FFF7F0FC4FF040004FF00001FFF7EAFCB6
:1015B80026E07A684FF4E053C4F200039A420CD153
:1015C8004FF080004FF00101FFF7DCFC4FF0800086
:1015D8004FF00001FFF7D6FC12E07A684FF4005391
:1015E800C4F200039A420BD14FF480704FF001010E
:1015F800FFF7C8FC4FF480704FF00001FFF7C2FC02
:1016080007F10807BD4680BD80B485B000AF78609B
:1016180039604FF00003FB817B681B88FB817A6887
:101628004FF00003C4F201039A421FD07A684FF4C6
:101638008063C4F201039A4218D07B68B3F1804FEB
:1016480014D07A684FF48063C4F200039A420DD034
:101658007A684FF40063C4F200039A4206D07A68AD
:101668004FF44063C4F200039A4208D1FB8923F087
:101678007003FB813B685A88FB891343FB817A68B6
:101688004FF48053C4F200039A420FD07A684FF4A3
:10169800A053C4F200039A4208D0FB8923F4407394
:1016A800FB813B681A89FB891343FB817B68FA89B4
:1016B8001A803B685A687B68DA623B681A887B68DC
:1016C8001A857A684FF00003C4F201039A4206D0E3
:1016D8007A684FF48063C4F201039A4204D13B68EC
:1016E8009B7A1A467B681A867B684FF001029A82B9
:1016F80007F11407BD4680BC704700BF80B483B0B3
:1017080000AF78600B46FB70FB78002B08D07B6835
:101718001B889BB243F001039AB27B681A8007E0EA
:101728007B681B889BB223F001039AB27B681A80FE
:1017380007F10C07BD4680BC704700BF80B483B07A
:1017480000AF786013460A467A807B707B78002B5E
:1017580008D07B689B899AB27B8813439AB27B68CE
:101768009A810AE07B689B899AB27B886FEA0303B7
:101778009BB213409AB27B689A8107F10C07BD4669
:1017880080BC704780B483B000AF78600B467B8024
:101798007B886FEA03039AB27B681A8207F10C0709
:1017A800BD4680BC704700BF80B485B000AF78608C
:1017B8000B467B804FF00003FB734FF00003BB81A7
:1017C8004FF000037B817B681B8A9AB27B881340A9
:1017D800BB817B689B899AB27B8813407B81BB89DC
:1017E800002B06D07B89002B03D04FF00103FB733D
:1017F80002E04FF00003FB73FB7B184607F1140768
:10180800BD4680BC704700BF80B483B000AF78602D
:101818000B467B807B886FEA03039AB27B681A8247
:1018280007F10C07BD4680BC704700BF80B485B087
:1018380000AF78604FF00003FB734FF00003BB73F9
:101848004FF00F037B737B68DB78002B45D04FF498
:101858006D43CEF20003DB686FEA030303F4E06331
:101868004FEA1323FB73FB7BC3F10403BB737A7B3F
:10187800FB7B42FA03F37B737B685B781A46BB7B7E
:1018880002FA03F3FB737B689A787B7B1340DAB226
:10189800FB7B1343FB73FB7B4FEA0313FB734FF490
:1018A8006143CEF200037A6812789B18FA7B83F8BA
:1018B80000234FF46143CEF200037A6812784FEAAE
:1018C8005212D2B27968097801F01F014FF0010075
:1018D80000FA01F143F8221014E04FF46143CEF20C
:1018E80000037A6812784FEA5212D2B279680978FE
:1018F80001F01F014FF0010000FA01F102F120028E
:1019080043F8221007F11407BD4680BC704700BF9A
:101918001823000800000020280500202C050020BE
:101928009805002070B542F2103642F21035C0F624
:101938000006C0F60005761BB61006D0002455F840
:10194800043B01349847A642F9D142F2143642F2D8
:101958001035C0F60006C0F60005761B00F0C8FC7E
:10196800B61006D0002455F8043B01349847A64227
:10197800F9D170BD38B50C460968054609B1FFF7BD
:10198800F9FF28462146BDE8384000F0CFB800BF2F
:1019980040F22403C2F2000370B505461B68984262
:1019A80048D0426AF2B1D368BBB10022164653F858
:1019B800221009B908E021460C68284600F0B6F85C
:1019C800002CF8D16B6ADB680136202E3246EED146
:1019D8002846194600F0AAF86A6A116811B1284623
:1019E80000F0A4F8696911B1284600F09FF8696A07
:1019F80011B1284600F09AF8A96B11B1284600F0F9
:101A080095F8E96B11B1284600F090F8296C11B1EE
:101A1800284600F08BF8AB6C2BB1D3F8881011B1C5
:101A2800284600F083F8696B11B1284600F07EF86B
:101A3800AB6903B970BDAB6A28469847D5F8D8108A
:101A48000029F7D02846BDE87040FFF793BF00BFD4
:101A580070B5064690B1B36C5BB15D686C1E08D476
:101A6800023503EB850555F8043D013C9847631C96
:101A7800F9D1B36A0BB13046984770BD40F22403E0
:101A8800C2F200031E68E6E7F8B540F21814C2F285
:101A980000040F46054600F0D1FBA36828465E689F
:101AA80026F0030606F57E630F33DF1B3F0B013F6D
:101AB8003F03B7F5805F07DB002100F0C3FBA36895
:101AC8009B199842284603D000F0BAFB0020F8BDC5
:101AD800794200F0B7FB013010D040F26453A1689E
:101AE800C2F20003F61B284646F001061A684E604B
:101AF800D71B1F6000F0A4FB0120F8BD0021284679
:101B080000F0A0FBA368C21A0F2A0DDD40F2205492
:101B180040F26451C2F20004C2F2000142F0010234
:101B28005A602368C01A08602846CDE7F8B50D4604
:101B38000446002975D000F081FB55F8046C40F28A
:101B48001810A5F10801C2F2000026F00103CA1816
:101B5800D0F808C05768944527F003077ED016F0E0
:101B6800010657604DD00026D5196D6815F0010F94
:101B780006D1DB199568002E64D0D268EA609560BA
:101B880043F00102CB504A60002E35D1B3F5007FF7
:101B980048D39E095A0A3836F500042A16D902F1A4
:101BA8005B06F500142A11D91E0B6E36F500542A6F
:101BB8000CD9DE0B7736F500B2F5AA7F06D940F2CC
:101BC8005455AA4274D89E0C7C36F500401940F250
:101BD8001815C2F200058268824203D15FE092685C
:101BE800904204D0556825F00305AB42F7D3D3687B
:101BF800CB608A60D16099602046BDE8F84000F06B
:101C08001FBB55F8085C00F1080C491B5B198D686F
:101C1800654542D0D1F80CC0C5F80CC0CCF80850C6
:101C2800A2E7F8BDDB080125466800EBC3029B105C
:101C380005FA03F3CA609568334343608D60E96031
:101C48009160D9E71C4FBD4297D1416143F0010231
:101C58000161CD608D604A60CB50CDE7F2073B440F
:101C680007D455F8082C891A9B188D68CA68EA6049
:101C7800956040F2245243F00105C2F200024D6023
:101C8800816012689342B7D340F260532046C2F293
:101C980000031968FFF7F8FEAEE7012664E701279D
:101CA8006868B610134607FA06F6304368609FE77F
:101CB8004FF47C757E2689E7200100202DE9F04F3E
:101CC80001F10B04162C83B0064630D924F0070422
:101CD800E30F8C422CBF194643F0010100292FD194
:101CE800304600F0ABFAB4F5FC7F2DD24FEAD40EA3
:101CF80040F21815C2F2000505EBCE02D3689342F4
:101D080000F023825C6803F10807DA68304624F0A3
:101D1800030499681B195C68CA6044F00104916067
:101D28005C6000F08DFA384603B0BDE8F08F002300
:101D380010248C422CBF194643F001010029CFD052
:101D48000C2300273360EEE75FEA542E04BF4FEA06
:101D5800D40E4FEACE0140F08C8040F21815C2F242
:101D680000056918CF68B94206D10DE0002A80F253
:101D78008181FF68B94207D07B6823F003031A1BEF
:101D88000F2AF3DD0EF1FF3E0EF1010E40F218109E
:101D98002F69C2F2000000F10802974208BF4368A9
:101DA80026D07B6823F0030CC4EB0C030F2B00F345
:101DB8009C81002B4261026180F29580BCF5007F16
:101DC80080F073814FEADC0C4FF00108436800EBA8
:101DD800CC014FEAAC0C08FA0CF8F960D1F808C04D
:101DE80048EA03034360C7F808C0CCF80C708F605A
:101DF80001274FEAAE0107FA01F79F427ED83B421E
:101E080006D12EF0030E7F000EF1040E3B42FAD0ED
:101E180005EBCE09F046CC46DCF80C00844507D12A
:101E280074E1002B80F29B81C068844500F06E81CC
:101E3800416821F003010B1B0F2BF2DD0746011946
:101E4800D0F80CE044F0010857F8084F43F0010CB3
:101E5800C0F804803046C1F804C0C4F80CE0CEF8DD
:101E6800084069612961CA608A60CB5000F0E8F9CE
:101E780059E7BEF1040F9EBF4FEA941E0EF1380ECB
:101E88004FEACE017FF669AFBEF1140F9CBF0EF189
:101E98005B0E4FEACE017FF660AFBEF1540F9EBFD6
:101EA8004FEA143E0EF16E0E4FEACE017FF655AFA3
:101EB800BEF5AA7F9EBF4FEAD43E0EF1770E4FEAD9
:101EC800CE017FF64AAF40F254539E4595BF4FEA84
:101ED800944E4FF47C710EF17C0E4FF07E0E98BF3D
:101EE8004FEACE0139E707EB0C03304608375A684A
:101EF80042F001025A6000F0A3F914E7AF6840F21B
:101F08001813C2F200037A6822F003084445C4EBB0
:101F1800080294BF002101210F2AD8BF41F0010116
:101F2800002900F0B58040F2605AD3F80824C2F2C4
:101F3800000A0132DAF80030234408BF03F1100B1D
:101F480006D003F580530F3323F47E6323F01F0B71
:101F58003046594600F076F9421C814600F031813E
:101F680007EB0803834200F20681DAF804204B45A8
:101F78005A44CAF8042000F03181D5F8080440F228
:101F88001811C2F200010130304617BFC3EB090334
:101F9800C1F80894D218CAF8042019F007031FBF23
:101FA800C3F10802C3F58053914403F1080209EB19
:101FB8000B0308BF4FF480521B051B0DC3EB020B2C
:101FC800594600F03FF9431C00F01D81C9EB0001A0
:101FD800594441F00101DAF80420AF4240F260535D
:101FE800C5F808905A44C2F20003C9F80410CAF8A8
:101FF800042019D0B8F10F0F40F2DD80A8F10C01D0
:10200800D7F804C021F007014FF0050E78180F2902
:102018000CF0010C41EA0C0CC7F804C0C0F804E04D
:10202800C0F808E000F2E68040F26053DAF82C10BD
:10203800C2F20003AF688A42DAF8301088BFDA6269
:1020480040F26053C2F200038A4288BF1A637B6879
:1020580023F003039C42C4EB030294BF0023012333
:102068000F2AD8BF43F0010393B13046002700F090
:10207800E7F858E6FB18FA68B96830465C6808372C
:10208800CA6044F0010491605C6000F0D9F84AE647
:102098003B1942F0010244F0010430467C600837E5
:1020A8005A60AB6000F0CCF83DE64FEA5C23042BA5
:1020B8005CD9142B78D85B33D800281840F218184C
:1020C800C2F200088168814203D160E089688842D1
:1020D80004D04B6823F003039C45F7D3C8686B68AA
:1020E800F860B960CF60876082E6391943F001056E
:1020F800416144F00104016130467C600837CA60E0
:102108008A604D60CB5000F09BF80CE608F101089E
:102118000CF1080C18F0030F7FF47EAE4B461EF04E
:10212800030FA3F108010EF1FF3E79D01B688B4223
:10213800F5D06B687F009F423FF6E0AE002F3FF47A
:10214800DDAE1F4271D0C64662E603F108025B6944
:102158009A4208BF0EF1020E3FF418AED2E50746C8
:102168004318C268304657F8081FD4E54FEA9C1355
:102178003833D800A1E7AF4240F21812C2F2000289
:102188003FF4F3AE97687B6823F0030362E74FF0F0
:102198000109D8F804C09B10084609FA03F343EA7A
:1021A8000C03C8F804309BE7542B0FD84FEA1C33B4
:1021B8006E33D80081E701234F46C9F80430002365
:1021C80048E7AF687B6823F0030343E7B3F5AA7FCA
:1021D8001DD84FEADC337733D8006EE71905090DAF
:1021E80000297FF4CAAEAB680BEB080141F001018E
:1021F800596019E7304607F108010193FFF796FC8B
:10220800019B5A6810E701214FF0000BE3E640F20A
:1022180054518B420DD84FEA9C437C33D8004CE78D
:102228006B6823EA07036B6084E77F0008F1040802
:1022380087E74FF47C707E233FE700BF704700BFFD
:10224800704700BF38B540F29454C2F20004054606
:10225800084600232360FEF787FB431C00D038BDE7
:102268002368002BFBD02B6038BD00BF002100F095
:1022780004B80D4B5B58435004310C480C4B4218C2
:102288009A42FFF4F6AF0B4A00F003B8002342F875
:10229800043B094B9A42FFF4F9AFFEF72FFCFFF716
:1022A80041FBFDF7A1FF704718230008000000203C
:1022B800280500202C05002098050020FFF7FEBF08
:1022C80065786974000000004865617020616E647B
:1022D80020737461636B20636F6C6C6973696F6ED4
:1022E8000A00000028000020430000000000000051
:1022F800F8B500BFF8BC08BC9E467047F8B500BFEB
:08230800F8BC08BC9E467047BA
:04231000B50100080B
:042314008901000833
:1023180000000000000402400010014058050020A1
:10232800007A030A00000000000000000102030414
:10233800060708092800002000000000000000002F
:102348000000000000000000000000000000000085
:102358000000000000000000F0220008000000005B
:102368000000000000000000000000000000000065
:102378000000000000000000000000000000000055
:102388000000000000000000000000000000000045
:102398000000000000000000000000000000000035
:1023A8000000000000000000000000000000000025
:1023B8000000000000000000000000000000000015
:1023C8000000000000000000000000000000000005
:1023D80000000000000000000000000000000000F5
:1023E80000000000000000000000000000000000E5
:1023F80000000000000000000000000000000000D5
:1024080000000000000000000000000000000000C4
:1024180000000000000000000000000000000000B4
:1024280000000000000000000000000000000000A4
:1024380018010020180100202001002020010020A0
:102448002801002028010020300100203001002050
:102458003801002038010020400100204001002000
:1024680048010020480100205001002050010020B0
:102478005801002058010020600100206001002060
:102488006801002068010020700100207001002010
:1024980078010020780100208001002080010020C0
:1024A8008801002088010020900100209001002070
:1024B8009801002098010020A0010020A001002020
:1024C800A8010020A8010020B0010020B0010020D0
:1024D800B8010020B8010020C0010020C001002080
:1024E800C8010020C8010020D0010020D001002030
:1024F800D8010020D8010020E0010020E0010020E0
:10250800E8010020E8010020F0010020F00100208F
:10251800F8010020F801002000020020000200203D
:1025280008020020080200201002002010020020EB
:10253800180200201802002020020020200200209B
:10254800280200202802002030020020300200204B
:1025580038020020380200204002002040020020FB
:1025680048020020480200205002002050020020AB
:10257800580200205802002060020020600200205B
:10258800680200206802002070020020700200200B
:1025980078020020780200208002002080020020BB
:1025A800880200208802002090020020900200206B
:1025B8009802002098020020A0020020A00200201B
:1025C800A8020020A8020020B0020020B0020020CB
:1025D800B8020020B8020020C0020020C00200207B
:1025E800C8020020C8020020D0020020D00200202B
:1025F800D8020020D8020020E0020020E0020020DB
:10260800E8020020E8020020F0020020F00200208A
:10261800F8020020F8020020000300200003002038
:1026280008030020080300201003002010030020E6
:102638001803002018030020200300202003002096
:102648002803002028030020300300203003002046
:1026580038030020380300204003002040030020F6
:1026680048030020480300205003002050030020A6
:102678005803002058030020600300206003002056
:102688006803002068030020700300207003002006
:1026980078030020780300208003002080030020B6
:1026A8008803002088030020900300209003002066
:1026B8009803002098030020A0030020A003002016
:1026C800A8030020A8030020B0030020B0030020C6
:1026D800B8030020B8030020C0030020C003002076
:1026E800C8030020C8030020D0030020D003002026
:1026F800D8030020D8030020E0030020E0030020D6
:10270800E8030020E8030020F0030020F003002085
:10271800F8030020F8030020000400200004002033
:1027280008040020080400201004002010040020E1
:102738001804002018040020200400202004002091
:102748002804002028040020300400203004002041
:1027580038040020380400204004002040040020F1
:1027680048040020480400205004002050040020A1
:102778005804002058040020600400206004002051
:102788006804002068040020700400207004002001
:1027980078040020780400208004002080040020B1
:1027A8008804002088040020900400209004002061
:1027B8009804002098040020A0040020A004002011
:1027C800A8040020A8040020B0040020B0040020C1
:1027D800B8040020B8040020C0040020C004002071
:1027E800C8040020C8040020D0040020D004002021
:1027F800D8040020D8040020E0040020E0040020D1
:10280800E8040020E8040020F0040020F004002080
:10281800F8040020F804002000050020000500202E
:1028280008050020080500201005002010050020DC
:08283800FFFFFFFF000002009A
:042840000000000094
:040000050800227558
:00000001FF
