:020000040800F2
:1000000000000220914F0008E14F0008E14F000876
:10001000E14F0008E14F0008E14F00080000000038
:10002000000000000000000000000000E14F000898
:10003000E14F000800000000E14F0008E14F000818
:10004000E14F0008E14F0008E14F0008E14F0008D0
:10005000E14F0008E14F0008E14F0008E14F0008C0
:10006000E14F0008E14F0008E14F0008E14F0008B0
:10007000E14F0008E14F0008E14F0008E14F0008A0
:10008000E14F0008E14F0008E14F0008E14F000890
:10009000E14F0008E14F0008E14F0008E14F000880
:1000A000E14F0008E14F0008E14F0008E14F000870
:1000B000E14F0008E14F0008E14F0008E14F000860
:1000C000E14F0008E14F0008E14F0008E14F000850
:1000D000E14F0008E14F0008E14F0008E14F000840
:1000E000E14F0008E14F0008E14F0008E14F000830
:1000F000E14F0008E14F0008E14F0008E14F000820
:10010000E14F0008E14F0008E14F0008E14F00080F
:10011000E14F0008E14F0008E14F0008E14F0008FF
:10012000E14F0008E14F0008E14F0008E14F0008EF
:10013000E14F0008E14F0008E14F0008E14F0008DF
:10014000E14F0008E14F0008E14F0008E14F0008CF
:10015000E14F0008E14F0008E14F0008E14F0008BF
:10016000E14F0008E14F0008E14F0008E14F0008AF
:10017000E14F0008E14F0008E14F0008E14F00089F
:08018000E14F0008E14F000807
:1001880010B540F23C54C2F20004237863B940F23F
:100198000000C0F2000028B145F21000C0F60000CF
:1001A800AFF300800121217010BD00BF08B540F2F7
:1001B8000003C0F200034BB145F2100040F2405179
:1001C800C0F60000C2F20001AFF3008040F23850E0
:1001D800C2F20000016829B140F20003C0F2000336
:1001E80003B1984708BD00BF80B500AF4FF00100CC
:1001F8004FF0010101F090FA40F25853C2F20003A7
:100208004FF001021A7140F25853C2F200034FF046
:1002180000029A7140F25853C2F200034FF00102F3
:100228005A7140F25853C2F200034FF00002DA71DB
:1002380040F25853C2F200034FF002021A604FF026
:100248000000C4F2020040F25851C2F2000102F06C
:1002580065F84FF00003C4F202034FF00002C4F245
:100268000202526922F002025A6180BD80B485B050
:1002780000AF786010E04FF00003FB6003E0FB681C
:1002880003F10103FB60FA6840F2E7339A42F6DDB6
:100298007B6803F1FF337B607B68002BEBD107F1B0
:1002A8001407BD4680BC704780B500AFFFF79CFFC0
:1002B8004FF00000C4F202004FF0020102F076F99C
:1002C8004FF08100FFF7D2FF4FF00000C4F20200A8
:1002D8004FF0020102F05CF9EAE700BF80B582B096
:1002E80000AF4FF002004FF0010101F015FA4FF096
:1002F80001033B714FF00003BB714FF001037B71A9
:100308004FF00003FB714FF002033B604FF4806035
:10031800C4F202003B46194602F000F84FF480632D
:10032800C4F202034FF48062C4F20202526922F05E
:1003380002025A6107F10807BD4680BD80B582B048
:1003480000AF4FF008004FF0010101F0E5F94FF45C
:1003580070433B604FF00003BB714FF001037B71AA
:100368004FF00003FB714FF001033B714FF4406005
:10037800C4F202003B46194601F0D0FF4FF440603A
:10038800C4F202004FF0000102F036F907F1080745
:10039800BD4680BD80B582B000AF4FF001004FF080
:1003A800010101F0B9F94FF000033B714FF0000370
:1003B800BB714FF002037B714FF00203FB714FF0EA
:1003C80001033B604FF00000C4F202003B461946AF
:1003D80001F0A4FF07F10807BD4680BD80B584B0D1
:1003E80000AF4FF001004FF0010101F013FA4CF299
:1003F8004F33BB6040F2A313BB804FF00003BB81B7
:100408004FF00003FB804FF0804007F104031946CA
:1004180002F082FA4FF080404FF001014FF00102E4
:1004280003F04AFC4FF01C033B704FF000037B7055
:100438004FF00103BB704FF00103FB703B461846B9
:1004480004F01CF807F11007BD4680BD80B584B0E4
:1004580000AF4FF002004FF0010101F0DBF94CF260
:100468004F33BB6040F28F63BB804FF00003BB810A
:100478004FF00003FB804FF48060C4F2000007F1E6
:100488000403194602F048FA4FF48060C4F20000F1
:100498004FF001014FF0010203F00EFC4FF01D0375
:1004A8003B704FF000037B704FF00103BB704FF0BF
:1004B8000103FB703B46184603F0E0FF07F1100705
:1004C800BD4680BD80B584B000AF4FF008004FF046
:1004D800010101F09FF944F61F03C0F20103BB605C
:1004E8004FF00003BB804FF00003BB814FF00003C7
:1004F800FB804FF44060C4F2000007F10403194682
:1005080002F00AFA4FF44060C4F200004FF0010113
:100518004FF0010203F0D0FB4FF032033B704FF075
:1005280000037B704FF00103BB704FF00103FB70B9
:100538003B46184603F0A2FF07F11007BD4680BDF1
:1005480080B586B000AF4FF002004FF0010101F016
:10055800E3F84FF480404FF0010101F085F94FF0C6
:1005680000033B754FF00003FB754FF001033B613F
:100578004FF48060C4F2020007F11003194601F03D
:10058800CDFE4FF001004FF0000101F075FD4FF076
:1005980001037B604FF000033B724FF008037B724E
:1005A8004FF00103BB7207F10403184601F00EFC7B
:1005B8004FF006033B734FF001037B734FF00103C9
:1005C800BB734FF00103FB7307F10C03184603F0EC
:1005D80055FF07F11807BD4680BD00BF80B483B042
:1005E80000AF43F63003C4F202037B607B681B68EC
:1005F80043F002027B681A6007F10C07BD4680BC15
:10060800704700BF80B483B000AF43F64403C4F220
:1006180002037B607B681B6843F010027B681A60EA
:1006280007F10C07BD4680BC704700BF80B400AF1F
:1006380040F20403C2F200031A6840F20403C2F253
:1006480000031B681B6823F44053136040F2040343
:10065800C2F200031A6840F20403C2F200031B68E6
:100668001B6843F40053136040F20403C2F2000312
:100678001A6840F20403C2F200031B685B6823F0A7
:100688004003536040F20403C2F200031A6840F2C8
:100698000403C2F200031B689B6823F44053936071
:1006A80040F20403C2F200031A6840F20403C2F2E3
:1006B80000031B689B6843F40053936040F20403F3
:1006C800C2F200031A6840F20403C2F200031B6876
:1006D8001B6A23F0E063136240F20403C2F20003D2
:1006E8001A6840F20403C2F200031B681B6A43F055
:1006F800E0631362BD4680BC704700BF80B487B01A
:1007080000AF786040F20803C2F200031A6840F2B2
:100718000803C2F200031B689B899BB223F4805331
:100728009BB2938140F20803C2F200031A6840F2B8
:100738000803C2F200031B689B899BB223F4806301
:100748009BB2938140F20803C2F200031A6840F298
:100758000803C2F200031B689B899BB243F008039D
:100768009BB2938140F20803C2F200031A6840F278
:100778000803C2F200031B689B899BB243F0040381
:100788009BB2938140F20803C2F200031A6840F258
:100798000803C2F200031B681B8A9BB223F4405370
:1007A8009BB2138240F20803C2F200031A6840F2B7
:1007B8000803C2F200031B689B8A9BB223F44073B0
:1007C8009BB2938240F20803C2F200031B689B8924
:1007D8009BB29BB21BB2002B3ADA7B684FEA43020A
:1007E8004FF4EA43C7F62B53B3FBF2F37B617A6904
:1007F80048F21F53C5F2EB13A3FB02134FEA53133E
:100808003B613B694FF0640202FB03F37A69D31A38
:100818004FEAC30303F1320248F21F53C5F2EB1348
:10082800A3FB02134FEA5313FB6040F20803C2F222
:1008380000031B683A6992B24FEA021291B2FA6851
:1008480092B202F0070292B20A4392B21A8139E0D8
:100858007B684FEA83024FF4EA43C7F62B53B3FB96
:10086800F2F37B617A6948F21F53C5F2EB13A3FBDD
:1008780002134FEA53133B613B694FF0640202FBDA
:1008880003F37A69D31A4FEA031303F1320248F2E9
:100898001F53C5F2EB13A3FB02134FEA5313FB607C
:1008A80040F20803C2F200031B683A6992B24FEAA9
:1008B800021291B2FA6892B202F00F0292B20A439F
:1008C80092B21A8140F20803C2F200031A6840F299
:1008D8000803C2F200031B689B899BB243F40053D0
:1008E8009BB2938107F11C07BD4680BC704700BFCF
:1008F80080B500AFFFF772FEFFF784FEFFF796FEA4
:100908004FF4E130FFF7FAFE80BD00BF80B584B038
:1009180000AF78603960FFF7EBFF4FF00003FB6032
:100928001BE000BF40F20803C2F200031B681B88EB
:100938009BB203F04003002BF4D040F20803C2F24C
:1009480000031B687A6812789A807B6803F10103B8
:100958007B60FB6803F10103FB60FA683B689A421D
:10096800DFDB3B68184607F11007BD4680BD00BFB6
:1009780080B582B000AF78604FF0010044F6E471B2
:10098800C0F600014FF0040200F042F9FEE700BF94
:1009980080B483B000AF78604FF0FF33184607F19A
:1009A8000C07BD4680BC704780B485B000AFF860C6
:1009B800B9607A6040F29C53C2F200034FF00C0217
:1009C8001A604FF0FF33184607F11407BD4680BC84
:1009D800704700BF80B400AF40F29C53C2F20003DE
:1009E8004FF00B021A604FF0FF331846BD4680BC2B
:1009F800704700BF80B483B000AF786039603B684F
:100A08004FF400525A604FF00003184607F10C07E4
:100A1800BD4680BC704700BF80B400AF4FF00103F3
:100A28001846BD4680BC704780B483B000AF78607C
:100A38007B6803F10003022B02D84FF0010308E0A2
:100A480040F29C53C2F200034FF009021A604FF0C3
:100A58000003184607F10C07BD4680BC704700BF6D
:100A680080B483B000AF7860396040F29C53C2F222
:100A780000034FF016021A604FF0FF33184607F1D3
:100A88000C07BD4680BC704780B483B000AF786067
:100A9800396040F29C53C2F200034FF01F021A6003
:100AA8004FF0FF33184607F10C07BD4680BC70476E
:100AB80080B485B000AFF860B9607A604FF0000389
:100AC800184607F11407BD4680BC704790B585B03D
:100AD80000AF786040F26453C2F200031B68002B39
:100AE80008D140F26453C2F2000340F2A052C2F2AD
:100AF80000021A6040F26453C2F200031B68FB60F4
:100B0800EFF308842346BB6040F26453C2F200034B
:100B18001A687B68D218BB689A4213D94FF0020052
:100B280044F6EC71C0F600014FF0190200F070F8BD
:100B380040F29C53C2F200034FF00C021A604FF0CF
:100B4800FF330CE040F26453C2F200031A687B687A
:100B5800D21840F26453C2F200031A60FB681846C8
:100B680007F11407BD4690BD80B485B000AFF860AA
:100B7800B9607A604FF0FF33184607F11407BD4695
:100B880080BC704780B483B000AF786039603B6840
:100B98004FF400525A604FF00003184607F10C0753
:100BA800BD4680BC704700BF80B483B000AF78609A
:100BB8004FF0FF33184607F10C07BD4680BC70475D
:100BC80080B483B000AF786040F29C53C2F2000357
:100BD8004FF002021A604FF0FF33184607F10C0776
:100BE800BD4680BC704700BF80B483B000AF78605A
:100BF80040F29C53C2F200034FF00A021A604FF011
:100C0800FF33184607F10C07BD4680BC704700BF8C
:100C180080B584B000AFF860B9607A60FB68012BDA
:100C280002D0022B06D00BE0B8687968FFF76EFE99
:100C380078600FE0B8687968FFF768FE786009E0C7
:100C480040F29C53C2F200034FF009021A604FF0C1
:100C5800FF3300E07B68184607F11007BD4680BDEA
:100C680080B500AF4FF46053C4F202034FF46052F2
:100C7800C4F20202126842F001021A604FF4605393
:100C8800C4F202034FF000029A604FF46053C4F2BA
:100C980002034FF46052C4F20202126822F0847216
:100CA80022F480321A604FF46053C4F2020343F214
:100CB8001002C2F200425A604FF46053C4F20203B9
:100CC8004FF46052C4F20202126822F480221A60C1
:100CD8004FF46053C4F202034FF00002DA6000F0F0
:100CE800C1F84FF46D43CEF200034FF000629A60F2
:100CF80080BD00BF80B487B000AF4FF000033B61F8
:100D08004FF000037B614FF00203FB604FF00003DC
:100D1800BB604FF002037B604FF46053C4F20203E0
:100D28009B6803F00C033B613B69042B0DD0082B37
:100D380015D0002B69D140F21003C2F200034FF422
:100D48001052C0F2F4021A6069E040F21003C2F2D5
:100D580000034FF49052C0F27A021A605FE04FF439
:100D68006053C4F202035B6803F480034FEA9353B1
:100D7800BB604FF46053C4F202035B6803F03F03A7
:100D88007B60BB68002B14D04FF49053C0F27A03F9
:100D98007A68B3FBF2F24FF46053C4F20203596865
:100DA80047F6C0730B404FEA931303FB02F37B61D2
:100DB80013E04FF41053C0F2F4037A68B3FBF2F275
:100DC8004FF46053C4F20203596847F6C0730B40EE
:100DD8004FEA931303FB02F37B614FF46053C4F2B1
:100DE80002035B6803F440334FEA134303F1010342
:100DF8004FEA4303FB607A69FB68B2FBF3F240F207
:100E08001003C2F200031A6009E040F21003C2F2B4
:100E180000034FF41052C0F2F4021A6000BF4FF4FE
:100E28006053C4F202039B6803F0F0034FEA131205
:100E380040F21403C2F200039B5CDBB23B6140F258
:100E48001003C2F200031A683B6922FA03F240F267
:100E58001003C2F200031A6007F11C07BD4680BCEC
:100E6800704700BF80B483B000AF4FF000037B60D1
:100E78004FF000033B604FF46053C4F202034FF499
:100E88006052C4F20202126842F480321A604FF4CF
:100E98006053C4F202031B6803F400333B607B68B1
:100EA80003F101037B603B68002B03D17B68B3F53A
:100EB800A06FECD14FF46053C4F202031B6803F433
:100EC8000033002B03D04FF001033B6002E04FF0EA
:100ED80000033B603B68012B40F082804FF4605375
:100EE800C4F202034FF46052C4F20202126C42F0E0
:100EF80080521A644FF4E043C4F200034FF4E04216
:100F0800C4F20002126842F480421A604FF460533F
:100F1800C4F202034FF46052C4F2020292689A606B
:100F28004FF46053C4F202034FF46052C4F2020259
:100F3800926842F400429A604FF46053C4F202038C
:100F48004FF46052C4F20202926842F4A0529A60CE
:100F58004FF46053C4F2020345F20842C0F24072F3
:100F68005A604FF46053C4F202034FF46052C4F263
:100F78000202126842F080721A6000BF4FF4605398
:100F8800C4F202031B6803F00073002BF6D04FF481
:100F98007053C4F2020340F205621A604FF46053C2
:100FA800C4F202034FF46052C4F20202926822F0C3
:100FB80003029A604FF46053C4F202034FF4605284
:100FC800C4F20202926842F002029A6000BF4FF433
:100FD8006053C4F202039B6803F00C03082BF6D19C
:100FE80007F10C07BD4680BC704700BF80B400AF56
:100FF8004FF46053C4F202034FF46052C4F2020289
:10100800126842F001021A604FF46053C4F20203FE
:101018004FF000029A604FF46053C4F202034FF499
:101028006052C4F20202126822F0847222F4803202
:101038001A604FF46053C4F2020343F21002C2F282
:1010480000425A604FF46053C4F202034FF46052F6
:10105800C4F20202126822F480221A604FF460532C
:10106800C4F202034FF00002DA60BD4680BC70474C
:1010780080B483B000AF0346FB7143F60203C4F2A9
:1010880002034FF000021A7043F60203C4F202038F
:10109800FA791A7007F10C07BD4680BC704700BF8B
:1010A80080B582B000AF4FF000033B604FF0000303
:1010B800FB714FF00003BB714FF0310000F0D2FD1F
:1010C8000346BB713B6803F101033B603B68B3F522
:1010D800A06F02D0BB79002BEED04FF0310000F0AA
:1010E800C1FD0346002B03D04FF00103FB7102E062
:1010F8004FF00003FB71FB79184607F10807BD465E
:1011080080BD00BF80B485B000AF0346FB714FF0CF
:101118000003FB604FF46053C4F202031B68FB60DA
:10112800FB6823F0F803FB60FB794FEAC303FA6816
:101138001343FB604FF46053C4F20203FA681A6069
:1011480007F11407BD4680BC704700BF80B483B068
:1011580000AF0346FB714FF00003C4F24723FA794E
:101168001A6007F10C07BD4680BC704780B483B095
:1011780000AF0346FB7143F67003C4F202034FF05D
:1011880000021A7043F67003C4F202034FF0000223
:101198001A70FB79012B02D0042B08D00FE043F61C
:1011A8007003C4F202034FF001021A7008E043F61C
:1011B8007003C4F202034FF005021A7000E000BF8A
:1011C80007F10C07BD4680BC704700BF80B483B0F0
:1011D80000AF0346FB714FF46863C4F24723FA7902
:1011E8001A6007F10C07BD4680BC704780B485B013
:1011F80000AFF860B9607A603B604FF46053C4F2A6
:1012080002037A684FEA8211BA6811433A684FEAD2
:10121800520202F1FF324FEA02421143FA681143C7
:10122800BA694FEA02620A435A6007F11407BD46D9
:1012380080BC704780B483B000AF0346FB714FF0A9
:101248006003C4F24723FA791A6007F10C07BD4618
:1012580080BC704780B483B000AF786039604FF4C9
:101268006053C4F202037A684FEA82113A684FEA7F
:1012780002720A43C3F8842007F10C07BD4680BCFC
:10128800704700BF80B483B000AF0346FB714FF0D6
:101298006803C4F24723FA791A6007F10C07BD46C0
:1012A80080BC704780B483B000AF0346FB714FF039
:1012B8004C03C4F24723FA791A6007F10C07BD46BC
:1012C80080BC704780B485B000AF786039604FF05B
:1012D8000003FB604FF46053C4F202039B68FB6099
:1012E800FB6823F0EC63FB607A683B681343FA6899
:1012F8001343FB604FF46053C4F20203FA689A6028
:1013080007F11407BD4680BC704700BF80B485B0A4
:1013180000AF786039604FF00003FB604FF4605312
:10132800C4F202039B68FB60FB6823F07843FB6010
:101338007A683B681343FA681343FB604FF46053C1
:10134800C4F20203FA689A6007F11407BD4680BC2C
:10135800704700BF80B485B000AF78604FF00003DD
:10136800FB604FF46053C4F202039B68FB60FB68A8
:1013780023F00303FB60FA687B681343FB604FF4B8
:101388006053C4F20203FA689A6007F11407BD4675
:1013980080BC704780B400AF4FF46053C4F20203BE
:1013A8009B68DBB203F00C03DBB21846BD4680BC79
:1013B800704700BF80B485B000AF78604FF000037D
:1013C800FB604FF46053C4F202039B68FB60FB6848
:1013D80023F0F003FB60FA687B681343FB604FF46B
:1013E8006053C4F20203FA689A6007F11407BD4615
:1013F80080BC704780B485B000AF78604FF00003C0
:10140800FB604FF46053C4F202039B68FB60FB6807
:1014180023F4E053FB60FA687B681343FB604FF4E6
:101428006053C4F20203FA689A6007F11407BD46D4
:1014380080BC704780B485B000AF78604FF000037F
:10144800FB604FF46053C4F202039B68FB60FB68C7
:1014580023F46043FB607B684FEAC303FA681343D5
:10146800FB604FF46053C4F20203FA689A6007F114
:101478001407BD4680BC704780B489B000AF78605F
:101488004FF00003BB614FF000037B614FF0000396
:10149800FB614FF002033B614FF00003FB604FF02C
:1014A8000203BB604FF46053C4F202039B6803F06D
:1014B8000C03BB61BB69042B0AD0082B0FD0002B8F
:1014C80060D17A684FF41053C0F2F403136060E0FF
:1014D8007A684FF49053C0F27A03136059E04FF4DE
:1014E8006053C4F202035B6803F480034FEA93532A
:1014F800FB604FF46053C4F202035B6803F03F03E0
:10150800BB60FB68002B14D04FF49053C0F27A03F1
:10151800BA68B3FBF2F24FF46053C4F2020359689D
:1015280047F6C0730B404FEA931303FB02F3FB61CA
:1015380013E04FF41053C0F2F403BA68B3FBF2F2AD
:101548004FF46053C4F20203596847F6C0730B4066
:101558004FEA931303FB02F3FB614FF46053C4F2A9
:1015680002035B6803F440334FEA134303F10103BA
:101578004FEA43033B61FA693B69B2FBF3F27B68CC
:101588001A6006E07A684FF41053C0F2F40313604F
:1015980000BF4FF46053C4F202039B6803F0F003EA
:1015A800BB61BB694FEA1313BB6140F22403C2F26B
:1015B8000003BA699B181B78DBB27B617B681A68E9
:1015C8007B6922FA03F27B685A604FF46053C4F2D5
:1015D80002039B6803F4E053BB61BB694FEA9323A2
:1015E800BB6140F22403C2F20003BA699B181B785E
:1015F800DBB27B617B685A687B6922FA03F27B68FD
:101608009A604FF46053C4F202039B6803F460438A
:10161800BB61BB694FEA5333BB6140F22403C2F29A
:101628000003BA699B181B78DBB27B617B685A6838
:101638007B6922FA03F27B68DA6007F12407BD466A
:1016480080BC704780B485B000AF78604FF000036D
:10165800FB607B6803F44073B3F5407F17D14FF408
:101668006053C4F202039B68FB60FB6823F4F81321
:10167800FB607B6823F0704323F44073FA681343DC
:10168800FB604FF46053C4F20203FA689A604FF4A7
:101698006053C4F202034FF46052C4F20202116FA5
:1016A8007A684FEA02524FEA12520A431A6707F160
:1016B8001407BD4680BC704780B483B000AF0346B2
:1016C800FB7140F63C63C4F24723FA791A6007F1CC
:1016D8000C07BD4680BC704780B483B000AF03469A
:1016E800FB714FF46463C4F24723FA791A6007F177
:1016F8000C07BD4680BC704780B483B000AF7860EB
:101708004FF4AE73C4F247237A681A6007F10C07E6
:10171800BD4680BC704700BF80B483B000AF78601E
:101728000B46FB70FB78002B0CD04FF46053C4F2CF
:1017380002034FF46052C4F20202116B7A680A4342
:101748001A630DE04FF46053C4F202034FF4605281
:10175800C4F20202116B7A686FEA02020A401A6345
:1017680007F10C07BD4680BC704700BF80B483B04A
:1017780000AF78600B46FB70FB78002B0CD04FF461
:101788006053C4F202034FF46052C4F20202516B78
:101798007A680A435A630DE04FF46053C4F20203B7
:1017A8004FF46052C4F20202516B7A686FEA020287
:1017B8000A405A6307F10C07BD4680BC704700BF5A
:1017C80080B483B000AF78600B46FB70FB78002BC9
:1017D8000CD04FF46053C4F202034FF46052C4F2C9
:1017E8000202916B7A680A439A630DE04FF46053E2
:1017F800C4F202034FF46052C4F20202916B7A6899
:101808006FEA02020A409A6307F10C07BD4680BCE2
:10181800704700BF80B483B000AF78600B46FB70A0
:10182800FB78002B0CD04FF46053C4F202034FF442
:101838006052C4F20202116C7A680A431A640DE01D
:101848004FF46053C4F202034FF46052C4F2020230
:10185800116C7A686FEA02020A401A6407F10C07F1
:10186800BD4680BC704700BF80B483B000AF7860CD
:101878000B46FB70FB78002B0CD04FF46053C4F27E
:1018880002034FF46052C4F20202516C7A680A43B0
:101898005A640DE04FF46053C4F202034FF46052EF
:1018A800C4F20202516C7A686FEA02020A405A6472
:1018B80007F10C07BD4680BC704700BF80B483B0F9
:1018C80000AF78600B46FB70FB78002B0CD04FF410
:1018D8006053C4F202034FF46052C4F20202116969
:1018E8007A680A431A610DE04FF46053C4F20203A8
:1018F8004FF46052C4F2020211697A686FEA020278
:101908000A401A6107F10C07BD4680BC704700BF4A
:1019180080B483B000AF78600B46FB70FB78002B77
:101928000CD04FF46053C4F202034FF46052C4F277
:10193800020251697A680A435A610DE04FF4605314
:10194800C4F202034FF46052C4F2020251697A6889
:101958006FEA02020A405A6107F10C07BD4680BCD3
:10196800704700BF80B483B000AF78600B46FB704F
:10197800FB78002B0CD04FF46053C4F202034FF4F1
:101988006052C4F2020291697A680A439A610DE0D2
:101998004FF46053C4F202034FF46052C4F20202DF
:1019A80091697A686FEA02020A409A6107F10C07A6
:1019B800BD4680BC704700BF80B483B000AF78607C
:1019C8000B46FB70FB78002B0CD04FF46053C4F22D
:1019D80002034FF46052C4F20202116A7A680A43A1
:1019E8001A620DE04FF46053C4F202034FF46052E0
:1019F800C4F20202116A7A686FEA02020A401A62A5
:101A080007F10C07BD4680BC704700BF80B483B0A7
:101A180000AF78600B46FB70FB78002B0CD04FF4BE
:101A28006053C4F202034FF46052C4F20202516AD6
:101A38007A680A435A620DE04FF46053C4F2020315
:101A48004FF46052C4F20202516A7A686FEA0202E5
:101A58000A405A6207F10C07BD4680BC704700BFB8
:101A680080B483B000AF78600B46FB70FB78002B26
:101A78000CD04FF46053C4F202034FF46052C4F226
:101A88000202116D7A680A431A650DE04FF460533B
:101A9800C4F202034FF46052C4F20202116D7A6874
:101AA8006FEA02020A401A6507F10C07BD4680BCBE
:101AB800704700BF80B483B000AF78600B46FB70FE
:101AC800FB78002B0CD04FF46053C4F202034FF4A0
:101AD8006052C4F20202516D7A680A435A650DE0F9
:101AE8004FF46053C4F202034FF46052C4F202028E
:101AF800516D7A686FEA02020A405A6507F10C07CD
:101B0800BD4680BC704700BF80B483B000AF78602A
:101B18000B46FB70FB78002B0CD04FF46053C4F2DB
:101B280002034FF46052C4F20202916D7A680A43CC
:101B38009A650DE04FF46053C4F202034FF460520B
:101B4800C4F20202916D7A686FEA02020A409A654D
:101B580007F10C07BD4680BC704700BF80B483B056
:101B680000AF78600B46FB70FB78002B0CD04FF46D
:101B78006053C4F202034FF46052C4F20202116EC1
:101B88007A680A431A660DE04FF46053C4F2020300
:101B98004FF46052C4F20202116E7A686FEA0202D0
:101BA8000A401A6607F10C07BD4680BC704700BFA3
:101BB80080B483B000AF78600B46FB70FB78002BD5
:101BC8000CD04FF46053C4F202034FF46052C4F2D5
:101BD8000202516E7A680A435A660DE04FF4605368
:101BE800C4F202034FF46052C4F20202516E7A68E2
:101BF8006FEA02020A405A6607F10C07BD4680BC2C
:101C0800704700BF80B483B000AF02460B46FA713C
:101C1800BB71BB79002B0ED043F60D03C4F202034F
:101C280043F60D02C4F202021278D1B2FA790A43DD
:101C3800D2B21A7010E043F60D03C4F2020343F661
:101C48000D02C4F202021278D1B2FA796FEA0202E6
:101C5800D2B20A40D2B21A7007F10C07BD4680BC56
:101C6800704700BF80B487B000AF0346FB714FF0E8
:101C78000003FB604FF000037B614FF00003FB742F
:101C8800FB794FEA5313DBB2FB60FB68012B06D1EB
:101C98004FF46053C4F202031B687B610FE0FB68DA
:101CA800022B06D14FF46053C4F202031B6F7B6111
:101CB80005E04FF46053C4F202035B6F7B61FB796C
:101CC80003F01F03FB60FB687A6922FA03F303F051
:101CD8000103DBB2002B03D04FF00103FB7402E0D9
:101CE8004FF00003FB74FB7C184607F11C07BD4648
:101CF80080BC704780B400AF4FF46053C4F2020355
:101D08004FF46052C4F20202526F42F080725A6776
:101D1800BD4680BC704700BF80B485B000AF0346A5
:101D2800FB714FF00003FB734FF46053C4F20203DE
:101D3800DA68FB791340002B03D04FF00103FB73E3
:101D480002E04FF00003FB73FB7B184607F1140712
:101D5800BD4680BC704700BF80B483B000AF034667
:101D6800FB7143F60E03C4F20203FA791A7007F105
:101D78000C07BD4680BC704780B400AF4FF4705369
:101D8800C4F201034FF000021A604FF47053C4F21A
:101D980001034FF000025A604FF47053C4F201037C
:101DA8004FF000029A604FF47053C4F201034FF0F1
:101DB8000002DA604FF47053C4F201034FF6FF7269
:101DC800C0F27F025A61BD4680BC704780B485B0BE
:101DD80000AF78604FF00003FB604FF47053C4F21B
:101DE8000103FB607B689B79002B78D04FF470531C
:101DF800C4F201034FF47052C4F2010211687A6808
:101E080012686FEA02020A401A604FF47053C4F273
:101E180001034FF47052C4F2010251687A681268E3
:101E28006FEA02020A405A607B681B79FA68D31885
:101E3800FB60FB68FA6811687A6812680A431A60DE
:101E48004FF47053C4F201034FF47052C4F201020C
:101E580091687A6812686FEA02020A409A604FF441
:101E68007053C4F201034FF47052C4F20102D168F6
:101E78007A6812686FEA02020A40DA607B685B7966
:101E8800102B1AD14FF47053C4F201034FF470525F
:101E9800C4F2010291687A6812680A439A604FF4A2
:101EA8007053C4F201034FF47052C4F20102D168B6
:101EB8007A6812680A43DA601FE04FF47053C4F27C
:101EC8000103FB607B685B79FA68D318FB60FB68E9
:101ED800FA6811687A6812680A431A600DE07B682C
:101EE8001B79FA68D318FB60FB68FA6811687A688E
:101EF80012686FEA02020A401A6007F11407BD4629
:101F080080BC704780B483B000AF78607B684FF0C6
:101F180000021A607B684FF000021A717B684FF06C
:101F28000C025A717B684FF000029A7107F10C0796
:101F3800BD4680BC704700BF80B483B000AF7860F6
:101F48004FF47053C4F201034FF47052C4F201020B
:101F580011697A680A431A6107F10C07BD4680BC0B
:101F6800704700BF80B485B000AF78604FF00003C1
:101F7800FB734FF47053C4F201035A697B68134032
:101F8800002B03D04FF00103FB7302E04FF0000376
:101F9800FB73FB7B184607F11407BD4680BC7047EE
:101FA80080B483B000AF78604FF47053C4F201037B
:101FB8007A685A6107F10C07BD4680BC704700BFBC
:101FC80080B485B000AF78604FF00003FB734FF02A
:101FD8000003BB604FF47053C4F201031A687B68B6
:101FE8001340BB604FF47053C4F201035A697B6815
:101FF8001340002B06D0BB68002B03D04FF0010321
:10200800FB7302E04FF00003FB73FB7B184607F1FC
:102018001407BD4680BC704780B483B000AF7860B9
:102028004FF47053C4F201037A685A6107F10C0740
:10203800BD4680BC704700BF80B500AF4FF48040FC
:102048004FF00101FFF7E2FC4FF480404FF0000130
:10205800FFF7DCFC80BD00BF80B483B000AF03464F
:10206800FB714FF46053C4F20103FA791A6007F167
:102078000C07BD4680BC704790B484B000AF0246E0
:102088000B46FA71BB714FF00003FB60BB7903F09C
:1020980003034FEA83034FF00F0202FA03F3FB60D6
:1020A8004FF46053C4F20103BA794FEA9202D2B2F4
:1020B80010464FF46052C4F20102B9794FEA910117
:1020C800C9B201F1020152F82110FA686FEA02025E
:1020D800114000F1020243F822104FF46053C4F299
:1020E8000103BA794FEA9202D2B210464FF4605215
:1020F800C4F20102B9794FEA9101C9B201F10201B2
:1021080052F82110FC79BA7902F003024FEA8202F0
:1021180004FA02F2114300F1020243F8221007F117
:102128001007BD4690BC704780B483B000AF78609C
:102138004FF0DC03C4F227237A681A6007F10C0712
:10214800BD4680BC704700BF80B483B000AF034673
:10215800FB714FF48063C4F22723FA791A6007F100
:102168000C07BD4680BC704780B483B000AF4FF009
:102178000003FB714FF46053C4F201031B6A03F4BC
:102188008073002B03D04FF00103FB7102E04FF086
:102198000003FB71FB79184607F10C07BD4680BCAC
:1021A800704700BF80B582B000AF78607A684FF0A2
:1021B8000003C4F202039A420CD14FF001004FF021
:1021C8000101FFF77BFB4FF001004FF00001FFF723
:1021D80075FB9EE07A684FF48063C4F202039A426A
:1021E8000CD14FF002004FF00101FFF767FB4FF0F1
:1021F80002004FF00001FFF761FB8AE07A684FF4B4
:102208000063C4F202039A420CD14FF004004FF06D
:102218000101FFF753FB4FF004004FF00001FFF7F7
:102228004DFB76E07A684FF44063C4F202039A42A9
:102238000CD14FF008004FF00101FFF73FFB4FF0C2
:1022480008004FF00001FFF739FB62E07A684FF4AD
:102258008053C4F202039A420CD14FF010004FF0A1
:102268000101FFF72BFB4FF010004FF00001FFF7C3
:1022780025FB4EE07A684FF4A053C4F202039A4259
:102288000CD14FF020004FF00101FFF717FB4FF082
:1022980020004FF00001FFF711FB3AE07A684FF495
:1022A800C053C4F202039A420CD14FF040004FF0E1
:1022B8000101FFF703FB4FF040004FF00001FFF76B
:1022C800FDFA26E07A684FF4E053C4F202039A421A
:1022D8000CD14FF080004FF00101FFF7EFFA4FF0FB
:1022E80080004FF00001FFF7E9FA12E07A684FF436
:1022F8000053C4F202039A420BD14FF480704FF09E
:102308000101FFF7DBFA4FF480704FF00001FFF78F
:10231800D5FA07F10807BD4680BD00BF80B487B075
:1023280000AF786039604FF000037B614FF0000325
:102338003B614FF00003FB604FF000037B6186E0D8
:102348007B694FF0010202FA03F33B613B681A68AC
:102358003B691340FB60FA683B699A4273D17B681A
:102368001A687B694FEA43034FF0030101FA03F34C
:102378006FEA03031A407B681A607B681A683B6837
:102388001B7919467B694FEA430301FA03F31A43A1
:102398007B681A603B681B79012B03D03B681B796B
:1023A800022B34D17B689A687B694FEA43034FF06C
:1023B800030101FA03F36FEA03031A407B689A608A
:1023C8007B689A683B685B7919467B694FEA4303E7
:1023D80001FA03F31A437B689A607B685A687B6941
:1023E8009BB24FF0010101FA03F36FEA03031A40AD
:1023F8007B685A607B685A683B689B7919467B6999
:102408009BB201FA03F39BB21A437B685A607B685C
:10241800DA687B699BB24FEA43034FF0030101FA84
:1024280003F36FEA03031A407B68DA607B68DA68B3
:102438003B68DB7919467B694FEA430301FA03F3EA
:102448001A437B68DA607B6903F101037B617B696E
:102458000F2B7FF675AF07F11C07BD4680BC704790
:1024680080B483B000AF78607B684FF6FF721A6063
:102478007B684FF000021A717B684FF000025A71B6
:102488007B684FF000029A717B684FF00002DA71A6
:1024980007F10C07BD4680BC704700BF80B485B00B
:1024A80000AF78600B467B804FF48033FB607A88FE
:1024B800FB681343FB60FA687B68DA617A887B689B
:1024C800DA61FA687B68DA617B68DB69FB607B68E4
:1024D800DB69FB6007F11407BD4680BC704700BF8D
:1024E80080B485B000AF78600B467B804FF0000366
:1024F800FB737B681A697B881340002B03D04FF06D
:102508000103FB7302E04FF00003FB73FB7B1846EB
:1025180007F11407BD4680BC704700BF80B483B084
:1025280000AF78607B681B699BB2184607F10C07FF
:10253800BD4680BC704700BF80B485B000AF7860EE
:102548000B467B804FF00003FB737B685A697B88DE
:102558001340002B03D04FF00103FB7302E04FF050
:102568000003FB73FB7B184607F11407BD4680BCCC
:10257800704700BF80B483B000AF78607B685B6948
:102588009BB2184607F10C07BD4680BC704700BFD8
:1025980080B483B000AF78600B467B807B687A8814
:1025A8001A8307F10C07BD4680BC704780B483B01E
:1025B80000AF78600B467B807B687A885A8307F186
:1025C8000C07BD4680BC704780B483B000AF78600C
:1025D80013460A467A807B707B78002B03D07B6891
:1025E8007A881A8302E07B687A885A8307F10C0795
:1025F800BD4680BC704700BF80B483B000AF786030
:102608000B467B807A887B685A6107F10C07BD46C8
:1026180080BC704780B483B000AF78600B467B8085
:102628007B685A697B885A407B685A6107F10C07B6
:10263800BD4680BC704700BF80B485B000AF7860ED
:1026480013460A467A807B704FF00003FB604FF018
:102658000003BB607A787B8803F007034FEA8303A3
:1026680002FA03F3FB607B884FEAD3039BB21A4656
:102678007B884FEAD3039BB219467B6801F10801B6
:1026880053F821107B8803F007034FEA83034FF0C8
:102698000F0000FA03F36FEA030319407B6802F1A5
:1026A800080243F822107B884FEAD3039BB21A46EC
:1026B8007B6802F1080253F82220FB681343BB60D1
:1026C8007B884FEAD3039BB21A467B6802F1080263
:1026D800B96843F8221007F11407BD4680BC70475B
:1026E80080B582B000AF78607A684FF00003C4F21A
:1026F80001039A420CD14FF001004FF00101FFF79E
:1027080085F94FF001004FF00001FFF77FF9FFE076
:102718007B68B3F1804F0CD14FF001004FF00101FD
:10272800FFF74AF94FF001004FF00001FFF744F9B5
:10273800EEE07A684FF48063C4F200039A420CD149
:102748004FF002004FF00101FFF736F94FF0020099
:102758004FF00001FFF730F9DAE07A684FF40063D0
:10276800C4F200039A420CD14FF004004FF001016B
:10277800FFF722F94FF004004FF00001FFF71CF9B2
:10278800C6E07A684FF44063C4F200039A420CD161
:102798004FF008004FF00101FFF70EF94FF0080065
:1027A8004FF00001FFF708F9B2E07A684FF4805360
:1027B800C4F200039A420CD14FF010004FF001010F
:1027C800FFF7FAF84FF010004FF00001FFF7F4F8A8
:1027D8009EE07A684FF4A053C4F200039A420CD1E9
:1027E8004FF020004FF00101FFF7E6F84FF020000E
:1027F8004FF00001FFF7E0F88AE07A684FF4806351
:10280800C4F201039A420CD14FF002004FF00101CB
:10281800FFF7FCF84FF002004FF00001FFF7F6F861
:1028280076E07A684FF48043C4F201039A420CD1EF
:102838004FF480304FF00101FFF7E8F84FF4803093
:102848004FF00001FFF7E2F862E07A684FF488433E
:10285800C4F201039A420CD14FF400304FF0010149
:10286800FFF7D4F84FF400304FF00001FFF7CEF82F
:102878004EE07A684FF49043C4F201039A420CD1B7
:102888004FF480204FF00101FFF7C0F84FF480208B
:102898004FF00001FFF7BAF83AE07A684FF4C053F6
:1028A800C4F200039A420CD14FF040004FF00101EE
:1028B800FFF782F84FF040004FF00001FFF77CF877
:1028C80026E07A684FF4E053C4F200039A420CD130
:1028D8004FF080004FF00101FFF76EF84FF08000D5
:1028E8004FF00001FFF768F812E07A684FF40053E0
:1028F800C4F200039A420BD14FF480704FF00101EB
:10290800FFF75AF84FF480704FF00001FFF754F8C2
:1029180007F10807BD4680BD80B485B000AF786078
:1029280039604FF00003FB817B681B88FB817A6864
:102938004FF00003C4F201039A421FD07A684FF4A3
:102948008063C4F201039A4218D07B68B3F1804FC8
:1029580014D07A684FF48063C4F200039A420DD011
:102968007A684FF40063C4F200039A4206D07A688A
:102978004FF44063C4F200039A4208D1FB8923F064
:102988007003FB813B685A88FB891343FB817A6893
:102998004FF48053C4F200039A420FD07A684FF480
:1029A800A053C4F200039A4208D0FB8923F4407371
:1029B800FB813B681A89FB891343FB817B68FA8991
:1029C8001A803B685A687B68DA623B681A887B68B9
:1029D8001A857A684FF00003C4F201039A4206D0C0
:1029E8007A684FF48063C4F201039A4204D13B68C9
:1029F8009B7A1A467B681A867B684FF001029A8296
:102A080007F11407BD4680BC704700BF80B483B08F
:102A180000AF78607B684FF0FF325A607B684FF0F8
:102A280000021A807B684FF000021A817B684FF021
:102A380000025A807B684FF000029A7207F10C0777
:102A4800BD4680BC704700BF80B483B000AF7860DB
:102A580013460A467A803B807B687A881A857B68A9
:102A68003A889A8207F10C07BD4680BC704700BFC0
:102A780080B485B000AF78600B467B804FF00003D0
:102A8800FB817B681B88FB81FB8923F07003FB813A
:102A9800FA897B881343FB817B68FA891A8007F1DE
:102AA8001407BD4680BC704780B483B000AF78601F
:102AB80039607B683A685A6207F10C07BD4680BCEA
:102AC800704700BF80B483B000AF786039607B681E
:102AD8003A68DA6207F10C07BD4680BC704700BF50
:102AE80080B483B000AF78607B685B6A184607F1F2
:102AF8000C07BD4680BC704780B483B000AF7860D7
:102B08007B681B8D9BB2184607F10C07BD4680BC3D
:102B1800704700BF80B483B000AF78600B46FB708D
:102B2800FB78002B08D07B681B889BB243F002031C
:102B38009AB27B681A8007E07B681B889BB223F0F7
:102B480002039AB27B681A8007F10C07BD4680BC65
:102B5800704700BF80B483B000AF78600B467B80BD
:102B68007B88002B08D07B681B889BB243F004034A
:102B78009AB27B681A8007E07B681B889BB223F0B7
:102B880004039AB27B681A8007F10C07BD4680BC23
:102B9800704700BF80B483B000AF78600B46FB700D
:102BA800FB78002B08D07B681B889BB243F080031E
:102BB8009AB27B681A8007E07B681B889BB223F077
:102BC80080039AB27B681A8007F10C07BD4680BC67
:102BD800704700BF80B483B000AF78600B467B803D
:102BE8007B681B889BB223F008039AB27B681A8023
:102BF8007B681B889AB27B8813439AB27B681A80D9
:102C080007F10C07BD4680BC704700BF80B483B095
:102C180000AF78600B467B807B681B889BB223F4EF
:102C280040739AB27B681A807B681B889AB27B884B
:102C380013439AB27B681A8007F10C07BD4680BC23
:102C4800704700BF80B483B000AF78600B46FB705C
:102C5800FB78002B08D07B681B889BB243F00103EC
:102C68009AB27B681A8007E07B681B889BB223F0C6
:102C780001039AB27B681A8007F10C07BD4680BC35
:102C8800704700BF80B485B000AF786039604FF0FE
:102C980000037B814FF00003FB814FF00003BB81F1
:102CA8007B681B8C9BB223F001039AB27B681A8461
:102CB8007B681B8CFB817B689B88BB817B681B8B3B
:102CC8007B817B8923F070037B817B8923F003035D
:102CD8007B813B681A887B8913437B81FB8923F0BE
:102CE8000203FB813B689A89FB891343FB813B689C
:102CF8005A88FB891343FB817A684FF00003C4F2BA
:102D080001039A4206D07A684FF48063C4F2010343
:102D18009A4223D1FB8923F00803FB813B68DA89B7
:102D2800FB891343FB81FB8923F00403FB813B6888
:102D38009A88FB891343FB81BB8923F48073BB8189
:102D4800BB8923F40073BB813B681A8ABB89134390
:102D5800BB813B685A8ABB891343BB817B68BA89AC
:102D68009A807B687A891A833B689A687B685A6379
:102D78007B68FA891A8407F11407BD4680BC70473E
:102D880080B485B000AF786039604FF000037B8174
:102D98004FF00003FB814FF00003BB817B681B8C65
:102DA8009BB223F010039AB27B681A847B681B8C51
:102DB800FB817B689B88BB817B681B8B7B817B89C4
:102DC80023F4E0437B817B8923F440737B813B6858
:102DD8001B884FEA03239AB27B8913437B81FB89C3
:102DE80023F02003FB813B689B894FEA03139AB2C7
:102DF800FB891343FB813B685B884FEA03139AB254
:102E0800FB891343FB817A684FF00003C4F2010386
:102E18009A4206D07A684FF48063C4F201039A425A
:102E28002FD1FB8923F08003FB813B68DB894FEAC4
:102E380003139AB2FB891343FB81FB8923F04003F8
:102E4800FB813B689B884FEA03139AB2FB891343C3
:102E5800FB81BB8923F48063BB81BB8923F40063B6
:102E6800BB813B681B8A4FEA83039AB2BB89134331
:102E7800BB813B685B8A4FEA83039AB2BB891343E1
:102E8800BB817B68BA899A807B687A891A833B6898
:102E98009A687B689A637B68FA891A8407F1140731
:102EA800BD4680BC704700BF80B485B000AF786075
:102EB80039604FF000037B814FF00003FB814FF036
:102EC8000003BB817B681B8C9BB223F480739AB28E
:102ED8007B681A847B681B8CFB817B689B88BB8121
:102EE8007B689B8B7B817B8923F070037B817B894B
:102EF80023F003037B813B681A887B8913437B811A
:102F0800FB8923F40073FB813B689B894FEA032309
:102F18009AB2FB891343FB813B685B884FEA032322
:102F28009AB2FB891343FB817A684FF00003C4F21D
:102F380001039A4206D07A684FF48063C4F2010311
:102F48009A422FD1FB8923F40063FB813B68DB891C
:102F58004FEA03239AB2FB891343FB81FB8923F4CD
:102F68008063FB813B689B884FEA03239AB2FB8905
:102F78001343FB81BB8923F48053BB81BB8923F4B2
:102F88000053BB813B681B8A4FEA03139AB2BB8983
:102F98001343BB813B685B8A4FEA03139AB2BB8930
:102FA8001343BB817B68BA899A807B687A899A8344
:102FB8003B689A687B68DA637B68FA891A8407F148
:102FC8001407BD4680BC704780B485B000AF7860F8
:102FD80039604FF00003BB814FF000037B814FF055
:102FE8000003FB817B681B8C9BB223F480539AB24D
:102FF8007B681A847B681B8C7B817B689B88FB8140
:103008007B689B8BBB81BB8923F4E043BB81BB8975
:1030180023F44073BB813B681B884FEA03239AB2B1
:10302800BB891343BB817B8923F400537B813B68B5
:103038009B894FEA03339AB27B8913437B813B68B0
:103048005B884FEA03339AB27B8913437B817A68A2
:103058004FF00003C4F201039A4206D07A684FF495
:103068008063C4F201039A420BD1FB8923F48043A5
:10307800FB813B681B8A4FEA83139AB2FB8913438F
:10308800FB817B68FA899A807B68BA899A833B6856
:103098009A687B681A647B687A891A8407F114072E
:1030A800BD4680BC704700BF80B483B000AF786075
:1030B8007B684FF000021A807B684FF000025A804C
:1030C8007B684FF000029A807B684FF000029A609C
:1030D8007B684FF000029A817B684FF00002DA812A
:1030E8007B684FF000021A827B684FF000025A8218
:1030F80007F10C07BD4680BC704700BF80B485B09F
:1031080000AF786013460A467A803B804FF0000390
:10311800FB604FF000037B817B68FB60FB6803F179
:103128001803FB607B884FF0010202FA03F37B81EE
:103138007B681B8C9AB27B896FEA03039BB21340AE
:103148009AB27B681A847B88002B02D07B88082B74
:1031580014D17B884FEA53039BB2FA68D318FB60FB
:10316800FA68FB6819684FF68F730B401360FB68A9
:10317800FA6811683A880A431A6019E07B88A3F153
:1031880004039BB24FEA53039BB2FA68D318FB605F
:10319800FA68FB68196848F6FF730B401360FB6810
:1031A800FA6811683A884FEA022292B20A431A6012
:1031B80007F11407BD4680BC704700BF80B483B0D8
:1031C80000AF786039607B683A685A6307F10C078A
:1031D800BD4680BC704700BF80B483B000AF786044
:1031E80039607B683A689A6307F10C07BD4680BC72
:1031F800704700BF80B483B000AF786039607B68E7
:103208003A68DA6307F10C07BD4680BC704700BF17
:1032180080B483B000AF786039607B683A681A641C
:1032280007F10C07BD4680BC704700BF80B485B06D
:1032380000AF78600B467B804FF00003FB817B6812
:103248001B8BFB81FB8923F07003FB81FA897B8848
:103258001343FB817B68FA891A8307F11407BD467B
:1032680080BC704780B485B000AF78600B467B8027
:103278004FF00003FB817B681B8BFB81FB8923F4E8
:10328800E043FB817B884FEA03239AB2FB8913430F
:10329800FB817B68FA891A8307F11407BD4680BC55
:1032A800704700BF80B485B000AF78600B467B8064
:1032B8004FF00003FB817B689B8BFB81FB8923F02C
:1032C8007003FB81FA897B881343FB817B68FA8949
:1032D8009A8307F11407BD4680BC704780B485B057
:1032E80000AF78600B467B804FF00003FB817B6862
:1032F8009B8BFB81FB8923F4E043FB817B884FEAAE
:1033080003239AB2FB891343FB817B68FA899A836A
:1033180007F11407BD4680BC704700BF80B485B074
:1033280000AF78600B467B804FF00003FB817B6821
:103338001B8BFB81FB8923F00803FB81FA897B88BF
:103348001343FB817B68FA891A8307F11407BD468A
:1033580080BC704780B485B000AF78600B467B8036
:103368004FF00003FB817B681B8BFB81FB8923F4F7
:103378000063FB817B884FEA03239AB2FB891343DE
:10338800FB817B68FA891A8307F11407BD4680BC64
:10339800704700BF80B485B000AF78600B467B8073
:1033A8004FF00003FB817B689B8BFB81FB8923F03B
:1033B8000803FB81FA897B881343FB817B68FA89C0
:1033C8009A8307F11407BD4680BC704780B485B066
:1033D80000AF78600B467B804FF00003FB817B6871
:1033E8009B8BFB81FB8923F40063FB817B884FEA7D
:1033F80003239AB2FB891343FB817B68FA899A837A
:1034080007F11407BD4680BC704700BF80B485B083
:1034180000AF78600B467B804FF00003FB817B6830
:103428001B8BFB81FB8923F00403FB81FA897B88D2
:103438001343FB817B68FA891A8307F11407BD4699
:1034480080BC704780B485B000AF78600B467B8045
:103458004FF00003FB817B681B8BFB81FB8923F406
:103468008063FB817B884FEA03239AB2FB8913436D
:10347800FB817B68FA891A8307F11407BD4680BC73
:10348800704700BF80B485B000AF78600B467B8082
:103498004FF00003FB817B689B8BFB81FB8923F04A
:1034A8000403FB81FA897B881343FB817B68FA89D3
:1034B8009A8307F11407BD4680BC704780B485B075
:1034C80000AF78600B467B804FF00003FB817B6880
:1034D8009B8BFB81FB8923F48063FB817B884FEA0C
:1034E80003239AB2FB891343FB817B68FA899A8389
:1034F80007F11407BD4680BC704700BF80B485B093
:1035080000AF78600B467B804FF00003FB817B683F
:103518001B8BFB81FB8923F08003FB81FA897B8865
:103528001343FB817B68FA891A8307F11407BD46A8
:1035380080BC704780B485B000AF78600B467B8054
:103548004FF00003FB817B681B8BFB81FB894FEAF3
:1035580043434FEA5343FB817B884FEA03239AB2E4
:10356800FB891343FB817B68FA891A8307F11407E7
:10357800BD4680BC704700BF80B485B000AF78609E
:103588000B467B804FF00003FB817B689B8BFB81A4
:10359800FB8923F08003FB81FA897B881343FB8135
:1035A8007B68FA899A8307F11407BD4680BC704787
:1035B80080B485B000AF78600B467B804FF0000385
:1035C800FB817B689B8BFB81FB894FEA43434FEA76
:1035D8005343FB817B884FEA03239AB2FB89134349
:1035E800FB817B68FA899A8307F11407BD4680BC82
:1035F800704700BF80B485B000AF78600B467B8011
:103608004FF00003FB817B681B8CFB81FB8923F057
:103618000203FB81FA897B881343FB817B68FA8963
:103628001A8407F11407BD4680BC704780B485B082
:1036380000AF78600B467B804FF00003FB817B680E
:103648001B8CFB81FB8923F00803FB81FA897B88AB
:103658001343FB817B68FA891A8407F11407BD4676
:1036680080BC704780B485B000AF78600B467B8023
:103678004FF00003FB817B681B8CFB81FB8923F0E7
:103688002003FB817B884FEA03139AB2FB8913431B
:10369800FB817B68FA891A8407F11407BD4680BC50
:1036A800704700BF80B485B000AF78600B467B8060
:1036B8004FF00003FB817B681B8CFB81FB8923F0A7
:1036C8008003FB817B884FEA03139AB2FB8913437B
:1036D800FB817B68FA891A8407F11407BD4680BC10
:1036E800704700BF80B485B000AF78600B467B8020
:1036F8004FF00003FB817B681B8CFB81FB8923F463
:103708000073FB817B884FEA03239AB2FB8913433A
:10371800FB817B68FA891A8407F11407BD4680BCCF
:10372800704700BF80B485B000AF78600B467B80DF
:103738004FF00003FB817B681B8CFB81FB8923F422
:103748000063FB817B884FEA03239AB2FB8913430A
:10375800FB817B68FA891A8407F11407BD4680BC8F
:10376800704700BF80B485B000AF78600B467B809F
:103778004FF00003FB817B681B8CFB81FB8923F4E2
:103788000053FB817B884FEA03339AB2FB891343CA
:10379800FB817B68FA891A8407F11407BD4680BC4F
:1037A800704700BF80B485B000AF786013460A4602
:1037B8007A803B804FF00003FB817B884FF0010249
:1037C80002FA03F3FB817B681B8C9AB2FB896FEAD0
:1037D80003039BB213409AB27B681A847B681B8CE4
:1037E8009AB239887B8801FA03F39BB213439AB2E1
:1037F8007B681A8407F11407BD4680BC704700BF78
:1038080080B485B000AF786013460A467A803B8062
:103818004FF00003FB817B884FF0040202FA03F3A8
:10382800FB817B681B8C9AB2FB896FEA03039BB20E
:1038380013409AB27B681A847B681B8C9AB23988C9
:103848007B8801FA03F39BB213439AB27B681A840C
:1038580007F11407BD4680BC704700BF80B582B031
:1038680000AF786039603B681B88002B0FD13B683C
:1038780059883B689A883B681B89786800F0C4FCC3
:103888003B68DB887868194600F0ECF836E03B685E
:103898001B88042B0FD13B6859883B689A883B6882
:1038A8001B89786800F0F0FC3B68DB88786819466B
:1038B80000F0F4F822E03B681B88082B0FD13B6826
:1038C80059883B689A883B681B89786800F02AFD0C
:1038D8003B68DB887868194600F0FEF80EE03B6824
:1038E80059883B689A883B681B89786800F060FDB6
:1038F8003B68DB887868194600F00AF907F1080781
:10390800BD4680BD80B483B000AF78607B684FF05F
:1039180000021A807B684FF000025A807B684FF0E3
:1039280001029A807B684FF00002DA807B684FF0D2
:1039380000021A8107F10C07BD4680BC704700BF22
:1039480080B584B000AF786039604FF00003FB8128
:103958004FF00103BB813B685B88002B03D14FF01C
:103968000203FB8102E04FF00003FB813B689B8868
:10397800012B03D14FF00203BB8102E04FF001039A
:10398800BB813B681B88002B1CD13B6859883B686E
:103998009A883B681B89786800F036FC3B68DB88AE
:1039A8007868194600F05EF83B681B89F989BA897E
:1039B800786800F069FC3B68DB887868194600F095
:1039C8006DF81BE03B6859883B689A883B681B89FF
:1039D800786800F059FC3B68DB887868194600F085
:1039E8005DF83B681B89F989BA89786800F00CFC96
:1039F8003B68DB887868194600F034F807F110074F
:103A0800BD4680BD80B483B000AF78607B685B6BD7
:103A1800184607F10C07BD4680BC704780B483B0D8
:103A280000AF78607B689B6B184607F10C07BD46B2
:103A380080BC704780B483B000AF78607B68DB6B74
:103A4800184607F10C07BD4680BC704780B483B0A8
:103A580000AF78607B681B6C184607F10C07BD4601
:103A680080BC704780B483B000AF78600B467B8021
:103A78007B681B8B9BB223F00C039AB27B681A837A
:103A88007B681B8B9AB27B8813439AB27B681A8334
:103A980007F10C07BD4680BC704700BF80B483B0F7
:103AA80000AF78600B467B807B681B8B9BB223F44E
:103AB80040639AB27B681A837B681B8B9AB27B88B7
:103AC8004FEA03239BB213439AB27B681A8307F128
:103AD8000C07BD4680BC704780B483B000AF7860E7
:103AE8000B467B807B689B8B9BB223F00C039AB2BE
:103AF8007B689A837B689B8B9AB27B8813439AB2C4
:103B08007B689A8307F10C07BD4680BC704700BFED
:103B180080B483B000AF78600B467B807B689B8B5A
:103B28009BB223F440639AB27B689A837B689B8B31
:103B38009AB27B884FEA03239BB213439AB27B68FD
:103B48009A8307F10C07BD4680BC704780B483B0E8
:103B580000AF786039603B681A883B685B8813431C
:103B68009AB23B689B8813439AB23B68DB8813433D
:103B78009AB23B681B8913439AB23B685B8913432B
:103B88009AB23B689B8913439AB27B68A3F8442096
:103B980007F10C07BD4680BC704700BF80B483B0F6
:103BA80000AF78607B684FF000021A807B684FF0A6
:103BB80000025A807B684FF000029A807B684FF0C1
:103BC8000002DA807B684FF000021A817B684FF0B0
:103BD80000025A817B684FF000029A8107F10C07B6
:103BE800BD4680BC704700BF80B483B000AF78602A
:103BF8000B46FB70FB78002B0CD07B68B3F8443085
:103C08009BB26FEA43436FEA53439AB27B68A3F8C7
:103C180044200BE07B68B3F844309BB24FEA43433F
:103C28004FEA53439AB27B68A3F8442007F10C0784
:103C3800BD4680BC704700BF80B483B000AF7860D9
:103C48000B46FB70FB78002B08D07B689B889BB2E7
:103C580043F004039AB27B689A8007E07B689B88EC
:103C68009BB223F004039AB27B689A8007F10C0791
:103C7800BD4680BC704700BF80B483B000AF786099
:103C88000B46FB70FB78002B08D07B689B889BB2A7
:103C980043F001039AB27B689A8007E07B689B88AF
:103CA8009BB223F001039AB27B689A8007F10C0754
:103CB800BD4680BC704700BF80B483B000AF786059
:103CC80013460A467A807B707B78002B08D07B6885
:103CD8009B899AB27B8813439AB27B689A810AE0DF
:103CE8007B689B899AB27B886FEA03039BB2134077
:103CF8009AB27B689A8107F10C07BD4680BC704771
:103D080080B483B000AF78600B467B807B687A888C
:103D18009A8207F10C07BD4680BC704780B485B015
:103D280000AF78600B467B804FF00003FB737B6825
:103D38001B8A9AB27B8813409BB2002B03D04FF0AA
:103D48000103FB7302E04FF00003FB73FB7B184693
:103D580007F11407BD4680BC704700BF80B483B02C
:103D680000AF78600B467B807B886FEA03039AB2CA
:103D78007B681A8207F10C07BD4680BC704700BFFC
:103D880080B485B000AF78600B467B804FF00003AD
:103D9800FB734FF00003BB814FF000037B817B680E
:103DA8001B8A9AB27B881340BB817B689B899AB235
:103DB8007B8813407B81BB89002B06D07B89002B35
:103DC80003D04FF00103FB7302E04FF00003FB73D5
:103DD800FB7B184607F11407BD4680BC704700BF3F
:103DE80080B483B000AF78600B467B807B886FEA35
:103DF80003039AB27B681A8207F10C07BD4680BCA0
:103E0800704700BF80B483B000AF786013460A469D
:103E18007A803B807A883B8813439AB27B68A3F800
:103E2800482007F10C07BD4680BC704780B483B0BA
:103E380000AF786013460A467A807B707B78002B47
:103E480008D07B689B899AB27B8813439AB27B68B7
:103E58009A810AE07B689B899AB27B886FEA0303A0
:103E68009BB213409AB27B689A8107F10C07BD4652
:103E780080BC704780B483B000AF78600B46FB709D
:103E8800FB78002B08D07B689B889BB243F0080323
:103E98009AB27B689A8007E07B689B889BB223F084
:103EA80008039AB27B689A8007F10C07BD4680BC6C
:103EB800704700BF80B483B000AF78607B681B890F
:103EC8009BB223F007039AB27B681A8107F10C07AB
:103ED800BD4680BC704700BF80B582B000AF786037
:103EE8000B467B807B887868194600F07DF87B68F4
:103EF8001B899BB243F007039AB27B681A8107F1CA
:103F08000807BD4680BD00BF80B584B000AFF8602B
:103F180079813A81FB807B89602B08D13A89FB88BB
:103F2800F86811464FF0010200F0AEF907E03A894F
:103F3800FB88F86811464FF0010200F065F97B89AB
:103F4800F868194600F050F8FB681B899BB243F0EB
:103F580007039AB2FB681A8107F11007BD4680BDB6
:103F680080B586B000AFF86079813A81FB804FF068
:103F78000003FB8279893A89FB88F86800F0A4F885
:103F8800FB681B89FB82FB8A23F00703FB82FB8A01
:103F980043F00703FB82FB8A23F07003FB82FB8A52
:103FA80043F07003FB82FB68FA8A1A8107F118074D
:103FB800BD4680BD80B584B000AFF86079813A8194
:103FC800FB8079893A89FB88F86800F07DF8FB68FE
:103FD8001B899BB243F480439AB2FB681A8107F1AC
:103FE8001007BD4680BD00BF80B485B000AF7860C3
:103FF8000B467B804FF00003FB817B681B89FB81AC
:10400800FB8923F07003FB81FA897B881343FB81CA
:104018007B68FA891A8107F11407BD4680BC70478E
:1040280080B483B000AF78600B467B807B689B8848
:104038009BB223F070039AB27B689A807B689B8856
:104048009AB27B8813439AB27B689A8007F10C076F
:10405800BD4680BC704700BF80B483B000AF7860B5
:104068000B467B807B681B899BB223F007039AB2BF
:104078007B681A817B681B899AB27B8813439AB242
:104088007B681A8107F10C07BD4680BC704700BFEA
:1040980080B483B000AF78600B467B807B681B8957
:1040A8009BB223F080039AB27B681A817B681B89D4
:1040B8009AB27B8813439AB27B681A8107F10C077E
:1040C800BD4680BC704700BF80B487B000AFF860C1
:1040D80079813A81FB804FF00003FB82FB681B89E2
:1040E800FB82FB8ADBB2FB82FB884FEA03239AB28E
:1040F8003B8913439AB27B8913439AB2FB8A1343D1
:10410800FB82FB68FA8A1A8107F11C07BD4680BC4E
:10411800704700BF80B487B000AFF86079813A81FA
:10412800FB804FF00003FB824FF00003BB824FF08F
:1041380000037B82FB681B89FB82FB681B8BBB82AD
:10414800FB681B8C7B82FB8A23F00703FB82FA8ABD
:104158007B891343FB82BB8A23F4407323F0030358
:10416800BB82BB8A43F4807343F00103BB827B8A22
:1041780023F022037B82FB884FEA03139AB23B8920
:1041880013439AB27B8A13437B82FB68FA8A1A81AB
:10419800FB68BA8A1A83FB687A8A1A8407F11C07B3
:1041A800BD4680BC704700BF80B483B000AF786064
:1041B8000B46FB70FB78002B08D07B689B889BB272
:1041C80043F080039AB27B689A8007E07B689B88FB
:1041D8009BB223F080039AB27B689A8007F10C07A0
:1041E800BD4680BC704700BF80B483B000AF786024
:1041F8000B467B807B687A88A3F8502007F10C0770
:10420800BD4680BC704700BF80B487B000AFF8607F
:1042180079813A81FB804FF00003FB824FF0000365
:10422800BB82FB681B8C9BB223F001039AB2FB682C
:104238001A84FB681B8BFB82FB681B8CBB82FB8A86
:1042480023F0F303FB82FB884FEA03139AB23B89FE
:1042580013439AB2FB8A1343FB82BB8A23F00A03F7
:10426800BB827A89BB8A13439BB243F00103BB82AA
:10427800FB68FA8A1A83FB68BA8A1A8407F11C0752
:10428800BD4680BC704700BF80B487B000AFF860FF
:1042980079813A81FB804FF00003FB824FF00003E5
:1042A800BB824FF000037B82FB681B8C9BB223F020
:1042B80010039AB2FB681A84FB681B8BFB82FB68AD
:1042C8001B8CBB827B894FEA03137B82FB8A23F416
:1042D80040734FEA03534FEA1353FB82FB884FEABC
:1042E80003339AB2FB8A1343FB823B894FEA0323C9
:1042F8009AB2FB8A1343FB82BB8A23F0A003BB82DA
:104308007A8ABB8A13439BB243F01003BB82FB68D3
:10431800FA8A1A83FB68BA8A1A8407F11C07BD4611
:1043280080BC704780B487B000AFF86079813A816B
:10433800FB804FF00003FB824FF00003BB824FF07D
:1043480000037B82FB681B8C9BB223F480739AB2B8
:10435800FB681A84FB689B8BFB82FB681B8CBB8207
:104368007B894FEA03237B82FB8A23F0F303FB82DA
:10437800FB884FEA03139AB23B8913439AB2FB8A2C
:104388001343FB82BB8A23F42063BB827A8ABB8AED
:1043980013439BB243F48073BB82FB68FA8A9A8307
:1043A800FB68BA8A1A8407F11C07BD4680BC7047AF
:1043B80080B487B000AFF86079813A81FB804FF014
:1043C8000003FB824FF00003BB824FF000037B82A7
:1043D800FB681B8C9BB223F480539AB2FB681A8447
:1043E800FB689B8BFB82FB681B8CBB827B894FEA3B
:1043F80003337B82FB8A23F440734FEA03534FEA6B
:104408001353FB823B894FEA03239AB2FB8A134377
:10441800FB82FB884FEA03339AB2FB8A1343FB8281
:10442800BB8A23F400534FEA43434FEA5343BB820A
:104438007A8ABB8A13439BB243F48053BB82FB68DE
:10444800FA8A9A83FB68BA8A1A8407F11C07BD4660
:1044580080BC704780B483B000AF78604FF46D4380
:10446800CEF200037A6842F0BE6242F42022DA609B
:1044780007F10C07BD4680BC704700BF80B485B00B
:1044880000AF78604FF00003FB734FF00003BB737D
:104498004FF00F037B737B68DB78002B45D04FF41C
:1044A8006D43CEF20003DB686FEA030303F4E063B5
:1044B8004FEA1323FB73FB7BC3F10403BB737A7BC3
:1044C800FB7B42FA03F37B737B685B781A46BB7B02
:1044D80002FA03F3FB737B689A787B7B1340DAB2AA
:1044E800FB7B1343FB73FB7B4FEA0313FB734FF414
:1044F8006143CEF200037A6812789B18FA7B83F83E
:1045080000234FF46143CEF200037A6812784FEA31
:104518005212D2B27968097801F01F014FF00100F8
:1045280000FA01F143F8221014E04FF46143CEF28F
:1045380000037A6812784FEA5212D2B27968097881
:1045480001F01F014FF0010000FA01F102F1200211
:1045580043F8221007F11407BD4680BC704700BF1E
:1045680080B483B000AF786039604FF46D43CEF209
:1045780000033A6822F0604222F07F0279680A4319
:104588009A6007F10C07BD4680BC704780B483B0C1
:1045980000AF02460B46FA71BB71BB79002B0CD0F9
:1045A8004FF46D43CEF200034FF46D42CEF2000299
:1045B8001169FA790A431A610DE04FF46D43CEF29E
:1045C80000034FF46D42CEF200021169FA796FEAE6
:1045D80002020A401A6107F10C07BD4680BC704709
:1045E80080B483B000AF78607B68042B0CD14EF2A6
:1045F8001003CEF200034EF21002CEF2000212684F
:1046080042F004021A600BE04EF21003CEF20003EF
:104618004EF21002CEF20002126822F004021A6072
:1046280007F10C07BD4680BC704700BF3450000836
:1046380000000020380500203C050020A0050020CF
:1046480070B545F22C0645F22C05C0F60006C0F6FA
:104658000005761BB61006D0002455F8043B01343B
:104668009847A642F9D145F2300645F22C05C0F626
:104678000006C0F60005761B00F0C8FCB61006D090
:10468800002455F8043B01349847A642F9D170BD7F
:1046980038B50C460968054609B1FFF7F9FF284601
:1046A8002146BDE8384000F0CFB800BF40F23403DF
:1046B800C2F2000370B505461B68984248D0426AAA
:1046C800F2B1D368BBB10022164653F8221009B9DB
:1046D80008E021460C68284600F0B6F8002CF8D10E
:1046E8006B6ADB680136202E3246EED12846194621
:1046F80000F0AAF86A6A116811B1284600F0A4F817
:10470800696911B1284600F09FF8696A11B1284615
:1047180000F09AF8A96B11B1284600F095F8E96BFA
:1047280011B1284600F090F8296C11B1284600F024
:104738008BF8AB6C2BB1D3F8881011B1284600F078
:1047480083F8696B11B1284600F07EF8AB6903B9AC
:1047580070BDAB6A28469847D5F8D8100029F7D01D
:104768002846BDE87040FFF793BF00BF70B5064606
:1047780090B1B36C5BB15D686C1E08D4023503EB75
:10478800850555F8043D013C9847631CF9D1B36A87
:104798000BB13046984770BD40F23403C2F20003B3
:1047A8001E68E6E7F8B540F22814C2F200040F4686
:1047B800054600F0D1FBA36828465E6826F003068C
:1047C80006F57E630F33DF1B3F0B013F3F03B7F551
:1047D800805F07DB002100F0C3FBA3689B199842A8
:1047E800284603D000F0BAFB0020F8BD794200F05B
:1047F800B7FB013010D040F26C53A168C2F200033D
:10480800F61B284646F001061A684E60D71B1F6043
:1048180000F0A4FB0120F8BD0021284600F0A0FB11
:10482800A368C21A0F2A0DDD40F2305440F26C51D1
:10483800C2F20004C2F2000142F001025A60236889
:10484800C01A08602846CDE7F8B50D460446002989
:1048580075D000F081FB55F8046C40F22810A5F1E2
:104868000801C2F2000026F00103CA18D0F808C0F7
:104878005768944527F003077ED016F00106576065
:104888004DD00026D5196D6815F0010F06D1DB193A
:104898009568002E64D0D268EA60956043F0010202
:1048A800CB504A60002E35D1B3F5007F48D39E091E
:1048B8005A0A3836F500042A16D902F15B06F500C3
:1048C800142A11D91E0B6E36F500542A0CD9DE0BAA
:1048D8007736F500B2F5AA7F06D940F25455AA42B8
:1048E80074D89E0C7C36F500401940F22815C2F2A7
:1048F80000058268824203D15FE09268904204D04A
:10490800556825F00305AB42F7D3D368CB608A60BE
:10491800D16099602046BDE8F84000F01FBB55F80B
:10492800085C00F1080C491B5B198D68654542D08D
:10493800D1F80CC0C5F80CC0CCF80850A2E7F8BDF7
:10494800DB080125466800EBC3029B1005FA03F358
:10495800CA609568334343608D60E9609160D9E728
:104968001C4FBD4297D1416143F001020161CD6006
:104978008D604A60CB50CDE7F2073B4407D455F829
:10498800082C891A9B188D68CA68EA60956040F2FD
:10499800345243F00105C2F200024D608160126892
:1049A8009342B7D340F268532046C2F20003196815
:1049B800FFF7F8FEAEE7012664E701276868B6103E
:1049C800134607FA06F6304368609FE74FF47C7594
:1049D8007E2689E7300100202DE9F04F01F10B0414
:1049E800162C83B0064630D924F00704E30F8C4216
:1049F8002CBF194643F0010100292FD1304600F0A1
:104A0800ABFAB4F5FC7F2DD24FEAD40E40F228154C
:104A1800C2F2000505EBCE02D368934200F0238270
:104A28005C6803F10807DA68304624F003049968E3
:104A38001B195C68CA6044F0010491605C6000F076
:104A48008DFA384603B0BDE8F08F002310248C425D
:104A58002CBF194643F001010029CFD00C230027B1
:104A68003360EEE75FEA542E04BF4FEAD40E4FEAF4
:104A7800CE0140F08C8040F22815C2F2000569187A
:104A8800CF68B94206D10DE0002A80F28181FF6823
:104A9800B94207D07B6823F003031A1B0F2AF3DD02
:104AA8000EF1FF3E0EF1010E40F228102F69C2F2FE
:104AB800000000F10802974208BF436826D07B68CF
:104AC80023F0030CC4EB0C030F2B00F39C81002B89
:104AD8004261026180F29580BCF5007F80F07381AD
:104AE8004FEADC0C4FF00108436800EBCC014FEAB9
:104AF800AC0C08FA0CF8F960D1F808C048EA0303CE
:104B08004360C7F808C0CCF80C708F6001274FEAE3
:104B1800AE0107FA01F79F427ED83B4206D12EF03C
:104B2800030E7F000EF1040E3B42FAD005EBCE09CE
:104B3800F046CC46DCF80C00844507D174E1002B24
:104B480080F29B81C068844500F06E81416821F045
:104B580003010B1B0F2BF2DD07460119D0F80CE0FF
:104B680044F0010857F8084F43F0010CC0F80480DE
:104B78003046C1F804C0C4F80CE0CEF808406961BA
:104B88002961CA608A60CB5000F0E8F959E7BEF1A4
:104B9800040F9EBF4FEA941E0EF1380E4FEACE0165
:104BA8007FF669AFBEF1140F9CBF0EF15B0E4FEAA2
:104BB800CE017FF660AFBEF1540F9EBF4FEA143EA0
:104BC8000EF16E0E4FEACE017FF655AFBEF5AA7F05
:104BD8009EBF4FEAD43E0EF1770E4FEACE017FF624
:104BE8004AAF40F254539E4595BF4FEA944E4FF456
:104BF8007C710EF17C0E4FF07E0E98BF4FEACE010D
:104C080039E707EB0C03304608375A6842F00102CF
:104C18005A6000F0A3F914E7AF6840F22813C2F213
:104C280000037A6822F003084445C4EB080294BFE5
:104C3800002101210F2AD8BF41F00101002900F00D
:104C4800B58040F2685AD3F80824C2F2000A01324B
:104C5800DAF80030234408BF03F1100B06D003F53F
:104C680080530F3323F47E6323F01F0B30465946DD
:104C780000F076F9421C814600F0318107EB080309
:104C8800834200F20681DAF804204B455A44CAF8F8
:104C9800042000F03181D5F8080440F22811C2F24E
:104CA80000010130304617BFC3EB0903C1F808946F
:104CB800D218CAF8042019F007031FBFC3F108026D
:104CC800C3F58053914403F1080209EB0B0308BFB5
:104CD8004FF480521B051B0DC3EB020B594600F025
:104CE8003FF9431C00F01D81C9EB0001594441F014
:104CF8000101DAF80420AF4240F26853C5F8089081
:104D08005A44C2F20003C9F80410CAF8042019D0A2
:104D1800B8F10F0F40F2DD80A8F10C01D7F804C0FC
:104D280021F007014FF0050E78180F290CF0010C3F
:104D380041EA0C0CC7F804C0C0F804E0C0F808E069
:104D480000F2E68040F26853DAF82C10C2F2000351
:104D5800AF688A42DAF8301088BFDA6240F26853E6
:104D6800C2F200038A4288BF1A637B6823F00303F8
:104D78009C42C4EB030294BF002301230F2AD8BF2F
:104D880043F0010393B13046002700F0E7F858E6F6
:104D9800FB18FA68B96830465C680837CA6044F09E
:104DA800010491605C6000F0D9F84AE63B1942F0D2
:104DB800010244F0010430467C6008375A60AB6059
:104DC80000F0CCF83DE64FEA5C23042B5CD9142BA9
:104DD80078D85B33D800281840F22818C2F20008A7
:104DE8008168814203D160E08968884204D04B68B9
:104DF80023F003039C45F7D3C8686B68F860B96073
:104E0800CF60876082E6391943F00105416144F0BB
:104E18000104016130467C600837CA608A604D60D1
:104E2800CB5000F09BF80CE608F101080CF1080CD7
:104E380018F0030F7FF47EAE4B461EF0030FA3F16C
:104E480008010EF1FF3E79D01B688B42F5D06B68E4
:104E58007F009F423FF6E0AE002F3FF4DDAE1F42D9
:104E680071D0C64662E603F108025B699A4208BF40
:104E78000EF1020E3FF418AED2E507464318C26899
:104E8800304657F8081FD4E54FEA9C133833D8004A
:104E9800A1E7AF4240F22812C2F200023FF4F3AE9B
:104EA80097687B6823F0030362E74FF00109D8F89D
:104EB80004C09B10084609FA03F343EA0C03C8F838
:104EC80004309BE7542B0FD84FEA1C336E33D800BD
:104ED80081E701234F46C9F80430002348E7AF684B
:104EE8007B6823F0030343E7B3F5AA7F1DD84FEA95
:104EF800DC337733D8006EE71905090D00297FF4F4
:104F0800CAAEAB680BEB080141F00101596019E723
:104F1800304607F108010193FFF796FC019B5A6898
:104F280010E701214FF0000BE3E640F254518B42A9
:104F38000DD84FEA9C437C33D8004CE76B6823EAD2
:104F480007036B6084E77F0008F1040887E74FF4E4
:104F58007C707E233FE700BF704700BF704700BFEB
:104F680038B540F29C54C2F20004054608460023B6
:104F78002360FBF7ABFD431C00D038BD2368002B32
:104F8800FBD02B6038BD00BF002100F004B80D4BEA
:104F98005B58435004310C480C4B42189A42FFF4BA
:104FA800F6AF0B4A00F003B8002342F8043B094B64
:104FB8009A42FFF4F9AFFBF753FEFFF741FBFBF70B
:104FC80073F97047345000080000002038050020AD
:104FD8003C050020A0050020FFF7FEBF6578697436
:104FE800000000004865617020616E642073746180
:104FF800636B20636F6C6C6973696F6E0A000000E5
:10500800380000204300000000000000F8B500BF91
:10501800F8BC08BC9E467047F8B500BFF8BC08BC91
:045028009E467047E9
:04502C00B5010008C2
:0450300089010008EA
:105034000000000000040240001001406005002050
:10504400007A030A000000000000000001020304CB
:10505400060708090000000001020304010203041A
:1050640006070809380000200000000000000000C6
:10507400000000000000000000000000000000002C
:1050840000000000000000000C50000800000000B8
:10509400000000000000000000000000000000000C
:1050A40000000000000000000000000000000000FC
:1050B40000000000000000000000000000000000EC
:1050C40000000000000000000000000000000000DC
:1050D40000000000000000000000000000000000CC
:1050E40000000000000000000000000000000000BC
:1050F40000000000000000000000000000000000AC
:10510400000000000000000000000000000000009B
:10511400000000000000000000000000000000008B
:10512400000000000000000000000000000000007B
:10513400000000000000000000000000000000006B
:10514400000000000000000000000000000000005B
:10515400000000000000000000000000000000004B
:105164002801002028010020300100203001002007
:1051740038010020380100204001002040010020B7
:105184004801002048010020500100205001002067
:105194005801002058010020600100206001002017
:1051A40068010020680100207001002070010020C7
:1051B4007801002078010020800100208001002077
:1051C4008801002088010020900100209001002027
:1051D4009801002098010020A0010020A0010020D7
:1051E400A8010020A8010020B0010020B001002087
:1051F400B8010020B8010020C0010020C001002037
:10520400C8010020C8010020D0010020D0010020E6
:10521400D8010020D8010020E0010020E001002096
:10522400E8010020E8010020F0010020F001002046
:10523400F8010020F80100200002002000020020F4
:1052440008020020080200201002002010020020A2
:105254001802002018020020200200202002002052
:105264002802002028020020300200203002002002
:1052740038020020380200204002002040020020B2
:105284004802002048020020500200205002002062
:105294005802002058020020600200206002002012
:1052A40068020020680200207002002070020020C2
:1052B4007802002078020020800200208002002072
:1052C4008802002088020020900200209002002022
:1052D4009802002098020020A0020020A0020020D2
:1052E400A8020020A8020020B0020020B002002082
:1052F400B8020020B8020020C0020020C002002032
:10530400C8020020C8020020D0020020D0020020E1
:10531400D8020020D8020020E0020020E002002091
:10532400E8020020E8020020F0020020F002002041
:10533400F8020020F80200200003002000030020EF
:10534400080300200803002010030020100300209D
:10535400180300201803002020030020200300204D
:1053640028030020280300203003002030030020FD
:1053740038030020380300204003002040030020AD
:10538400480300204803002050030020500300205D
:10539400580300205803002060030020600300200D
:1053A40068030020680300207003002070030020BD
:1053B400780300207803002080030020800300206D
:1053C400880300208803002090030020900300201D
:1053D4009803002098030020A0030020A0030020CD
:1053E400A8030020A8030020B0030020B00300207D
:1053F400B8030020B8030020C0030020C00300202D
:10540400C8030020C8030020D0030020D0030020DC
:10541400D8030020D8030020E0030020E00300208C
:10542400E8030020E8030020F0030020F00300203C
:10543400F8030020F80300200004002000040020EA
:105444000804002008040020100400201004002098
:105454001804002018040020200400202004002048
:1054640028040020280400203004002030040020F8
:1054740038040020380400204004002040040020A8
:105484004804002048040020500400205004002058
:105494005804002058040020600400206004002008
:1054A40068040020680400207004002070040020B8
:1054B4007804002078040020800400208004002068
:1054C4008804002088040020900400209004002018
:1054D4009804002098040020A0040020A0040020C8
:1054E400A8040020A8040020B0040020B004002078
:1054F400B8040020B8040020C0040020C004002028
:10550400C8040020C8040020D0040020D0040020D7
:10551400D8040020D8040020E0040020E004002087
:10552400E8040020E8040020F0040020F004002037
:10553400F8040020F80400200005002000050020E5
:105544000805002008050020100500201005002093
:105554001805002018050020200500202005002043
:08556400FFFFFFFF0000020041
:04556C00000000003B
:0400000508004F910F
:00000001FF
